{
  "contractName": "MerkleProof",
  "abi": [
    {
      "inputs": [
        {
          "internalType": "bytes32",
          "name": "appHash",
          "type": "bytes32"
        },
        {
          "internalType": "string",
          "name": "storeName",
          "type": "string"
        },
        {
          "internalType": "bytes",
          "name": "key",
          "type": "bytes"
        },
        {
          "internalType": "bytes",
          "name": "value",
          "type": "bytes"
        },
        {
          "internalType": "bytes",
          "name": "proof",
          "type": "bytes"
        }
      ],
      "name": "validateMerkleProof",
      "outputs": [
        {
          "internalType": "bool",
          "name": "",
          "type": "bool"
        }
      ],
      "stateMutability": "view",
      "type": "function"
    }
  ],
  "bytecode": "0x6104e9610026600b82828239805160001a60731461001957fe5b30600052607381538281f3fe73000000000000000000000000000000000000000030146080604052600436106100355760003560e01c80638c60e8151461003a575b600080fd5b6102c2600480360360a081101561005057600080fd5b81019080803590602001909291908035906020019064010000000081111561007757600080fd5b82018360208201111561008957600080fd5b803590602001918460018302840111640100000000831117156100ab57600080fd5b91908080601f016020809104026020016040519081016040528093929190818152602001838380828437600081840152601f19601f8201169050808301925050505050505091929192908035906020019064010000000081111561010e57600080fd5b82018360208201111561012057600080fd5b8035906020019184600183028401116401000000008311171561014257600080fd5b91908080601f016020809104026020016040519081016040528093929190818152602001838380828437600081840152601f19601f820116905080830192505050505050509192919290803590602001906401000000008111156101a557600080fd5b8201836020820111156101b757600080fd5b803590602001918460018302840111640100000000831117156101d957600080fd5b91908080601f016020809104026020016040519081016040528093929190818152602001838380828437600081840152601f19601f8201169050808301925050505050505091929192908035906020019064010000000081111561023c57600080fd5b82018360208201111561024e57600080fd5b8035906020019184600183028401116401000000008311171561027057600080fd5b91908080601f016020809104026020016040519081016040528093929190818152602001838380828437600081840152601f19601f8201169050808301925050505050505091929192905050506102dc565b604051808215151515815260200191505060405180910390f35b60008060001b8614156102f25760009050610420565b606082518451865160800101016040519080825280601f01601f1916602001820160405280156103315781602001600182028036833780820191505090505b509050600061033f82610429565b905060608790506020810151600083015260008060208401935061036289610436565b809250819350505080845260208401935061037e828583610448565b808401935061038c88610436565b80925081935050508084526020840193506103a8828583610448565b80840193508a84526020840193506103bf87610436565b80925081935050506103d2828583610448565b602085510190506103e1610491565b60208183886065600019fa506001816000600181106103fc57fe5b6020020151146104155760009650505050505050610420565b600196505050505050505b95945050505050565b6000602082019050919050565b60008082519050602083019150915091565b5b6020811061046c5782518252602082019150602083019250602081039050610449565b60006001826020036101000a0390508019845116818451168181178552505050505050565b604051806020016040528060019060208202803683378082019150509050509056fea2646970667358221220dd6fa5e8669e0f155be6b7098572067f7ac453be12129896e204d7832c68843e64736f6c63430006040033",
  "source": "pragma solidity 0.6.4;\n\nimport \"./Memory.sol\";\n\nlibrary MerkleProof { \n    function validateMerkleProof(bytes32 appHash, string memory storeName, bytes memory key,\n        bytes memory value, bytes memory proof) public view returns (bool) {\n        if (appHash == bytes32(0)) {\n            return false;\n        }\n\n        // | storeName | key length | key | value length | value | appHash  | proof |\n        // | 32 bytes  | 32 bytes   |     | 32 bytes     |       | 32 bytes |\n        bytes memory input = new bytes(128+key.length+value.length+proof.length);\n\n        uint256 ptr = Memory.dataPtr(input);\n\n        bytes memory storeNameBytes = bytes(storeName);\n        assembly {\n            mstore(add(ptr, 0), mload(add(storeNameBytes, 32)))\n        }\n\n        uint256 src;\n        uint256 length;\n\n        // write key length and key to input\n        ptr+=32;\n        (src, length) = Memory.fromBytes(key);\n        assembly {\n            mstore(ptr, length)\n        }\n        ptr+=32;\n        Memory.copy(src, ptr, length);\n\n        // write value length and value to input\n        ptr+=length;\n        (src, length) = Memory.fromBytes(value);\n        assembly {\n            mstore(ptr, length)\n        }\n        ptr+=32;\n        Memory.copy(src, ptr, length);\n\n        // write appHash to input\n        ptr+=length;\n        assembly {\n            mstore(ptr, appHash)\n        }\n\n        // write proof to input\n        ptr+=32;\n        (src,length) = Memory.fromBytes(proof);\n        Memory.copy(src, ptr, length);\n\n        length = input.length+32;\n\n        uint256[1] memory result;\n        assembly {\n        // call validateMerkleProof precompile contract\n        // Contract address: 0x65\n            if iszero(staticcall(not(0), 0x65, input, length, result, 0x20)) {}\n        }\n\n        if (result[0] != 0x01) {\n            return false;\n        }\n\n        return true;\n    }\n}",
  "sourcePath": "D:\\project_data\\smart_contract\\project\\bscTest1\\contracts\\MerkleProof.sol",
  "compiler": {
    "name": "solc",
    "version": "0.6.4+commit.1dca32f3.Emscripten.clang"
  },
  "schemaVersion": "3.4.3",
  "updatedAt": "2021-12-22T19:15:56.915Z",
  "devdoc": {
    "methods": {}
  },
  "userdoc": {
    "methods": {}
  }
}