{
  "contractName": "RelayerIncentivize",
  "abi": [
    {
      "anonymous": false,
      "inputs": [
        {
          "indexed": false,
          "internalType": "uint256",
          "name": "sequence",
          "type": "uint256"
        },
        {
          "indexed": false,
          "internalType": "uint256",
          "name": "roundHeaderRelayerReward",
          "type": "uint256"
        },
        {
          "indexed": false,
          "internalType": "uint256",
          "name": "roundTransferRelayerReward",
          "type": "uint256"
        }
      ],
      "name": "LogRewardPeriodExpire",
      "type": "event"
    },
    {
      "inputs": [
        {
          "internalType": "uint256",
          "name": "",
          "type": "uint256"
        }
      ],
      "name": "_collectedRewardForHeaderRelayerPerRound",
      "outputs": [
        {
          "internalType": "uint256",
          "name": "",
          "type": "uint256"
        }
      ],
      "stateMutability": "view",
      "type": "function"
    },
    {
      "inputs": [
        {
          "internalType": "uint256",
          "name": "",
          "type": "uint256"
        }
      ],
      "name": "_collectedRewardForTransferRelayerPerRound",
      "outputs": [
        {
          "internalType": "uint256",
          "name": "",
          "type": "uint256"
        }
      ],
      "stateMutability": "view",
      "type": "function"
    },
    {
      "inputs": [],
      "name": "_countInRound",
      "outputs": [
        {
          "internalType": "uint256",
          "name": "",
          "type": "uint256"
        }
      ],
      "stateMutability": "view",
      "type": "function"
    },
    {
      "inputs": [
        {
          "internalType": "uint256",
          "name": "",
          "type": "uint256"
        },
        {
          "internalType": "uint256",
          "name": "",
          "type": "uint256"
        }
      ],
      "name": "_headerRelayerAddressRecord",
      "outputs": [
        {
          "internalType": "address payable",
          "name": "",
          "type": "address"
        }
      ],
      "stateMutability": "view",
      "type": "function"
    },
    {
      "inputs": [
        {
          "internalType": "uint256",
          "name": "",
          "type": "uint256"
        },
        {
          "internalType": "address",
          "name": "",
          "type": "address"
        }
      ],
      "name": "_headerRelayersSubmitCount",
      "outputs": [
        {
          "internalType": "uint256",
          "name": "",
          "type": "uint256"
        }
      ],
      "stateMutability": "view",
      "type": "function"
    },
    {
      "inputs": [],
      "name": "_roundSequence",
      "outputs": [
        {
          "internalType": "uint256",
          "name": "",
          "type": "uint256"
        }
      ],
      "stateMutability": "view",
      "type": "function"
    },
    {
      "inputs": [
        {
          "internalType": "uint256",
          "name": "",
          "type": "uint256"
        },
        {
          "internalType": "uint256",
          "name": "",
          "type": "uint256"
        }
      ],
      "name": "_transferRelayerAddressRecord",
      "outputs": [
        {
          "internalType": "address payable",
          "name": "",
          "type": "address"
        }
      ],
      "stateMutability": "view",
      "type": "function"
    },
    {
      "inputs": [
        {
          "internalType": "uint256",
          "name": "",
          "type": "uint256"
        },
        {
          "internalType": "address",
          "name": "",
          "type": "address"
        }
      ],
      "name": "_transferRelayersSubmitCount",
      "outputs": [
        {
          "internalType": "uint256",
          "name": "",
          "type": "uint256"
        }
      ],
      "stateMutability": "view",
      "type": "function"
    },
    {
      "inputs": [
        {
          "internalType": "address payable",
          "name": "headerRelayerAddr",
          "type": "address"
        },
        {
          "internalType": "address payable",
          "name": "caller",
          "type": "address"
        }
      ],
      "name": "addReward",
      "outputs": [
        {
          "internalType": "bool",
          "name": "",
          "type": "bool"
        }
      ],
      "stateMutability": "payable",
      "type": "function"
    },
    {
      "inputs": [
        {
          "internalType": "uint256",
          "name": "count",
          "type": "uint256"
        }
      ],
      "name": "calculateTransferRelayerWeight",
      "outputs": [
        {
          "internalType": "uint256",
          "name": "",
          "type": "uint256"
        }
      ],
      "stateMutability": "pure",
      "type": "function"
    },
    {
      "inputs": [
        {
          "internalType": "uint256",
          "name": "count",
          "type": "uint256"
        }
      ],
      "name": "calculateHeaderRelayerWeight",
      "outputs": [
        {
          "internalType": "uint256",
          "name": "",
          "type": "uint256"
        }
      ],
      "stateMutability": "pure",
      "type": "function"
    }
  ],
  "bytecode": "0x60806040526000600655600060075534801561001a57600080fd5b5061121d8061002a6000396000f3fe60806040526004361061009c5760003560e01c806386a257f41161006457806386a257f41461028b57806389d7f6b714610310578063a99c57f91461037f578063af400681146103ce578063bd4cc8301461041d578063c780ba131461046c5761009c565b80630eaa9069146100a15780632d804f041461012657806340b47e1a146101515780636adf373b146101cd5780637669ceab1461021c575b600080fd5b3480156100ad57600080fd5b506100e4600480360360408110156100c457600080fd5b810190808035906020019092919080359060200190929190505050610497565b604051808273ffffffffffffffffffffffffffffffffffffffff1673ffffffffffffffffffffffffffffffffffffffff16815260200191505060405180910390f35b34801561013257600080fd5b5061013b6104e2565b6040518082815260200191505060405180910390f35b6101b36004803603604081101561016757600080fd5b81019080803573ffffffffffffffffffffffffffffffffffffffff169060200190929190803573ffffffffffffffffffffffffffffffffffffffff1690602001909291905050506104e8565b604051808215151515815260200191505060405180910390f35b3480156101d957600080fd5b50610206600480360360208110156101f057600080fd5b8101908080359060200190929190505050610876565b6040518082815260200191505060405180910390f35b34801561022857600080fd5b506102756004803603604081101561023f57600080fd5b8101908080359060200190929190803573ffffffffffffffffffffffffffffffffffffffff16906020019092919050505061088e565b6040518082815260200191505060405180910390f35b34801561029757600080fd5b506102ce600480360360408110156102ae57600080fd5b8101908080359060200190929190803590602001909291905050506108b3565b604051808273ffffffffffffffffffffffffffffffffffffffff1673ffffffffffffffffffffffffffffffffffffffff16815260200191505060405180910390f35b34801561031c57600080fd5b506103696004803603604081101561033357600080fd5b8101908080359060200190929190803573ffffffffffffffffffffffffffffffffffffffff1690602001909291905050506108fe565b6040518082815260200191505060405180910390f35b34801561038b57600080fd5b506103b8600480360360208110156103a257600080fd5b8101908080359060200190929190505050610923565b6040518082815260200191505060405180910390f35b3480156103da57600080fd5b50610407600480360360208110156103f157600080fd5b810190808035906020019092919050505061093b565b6040518082815260200191505060405180910390f35b34801561042957600080fd5b506104566004803603602081101561044057600080fd5b81019080803590602001909291905050506109c4565b6040518082815260200191505060405180910390f35b34801561047857600080fd5b50610481610a07565b6040518082815260200191505060405180910390f35b600160205281600052604060002081815481106104b057fe5b906000526020600020016000915091509054906101000a900473ffffffffffffffffffffffffffffffffffffffff1681565b60065481565b6000600760008154809291906001019190505550600061050734610a0d565b90508060046000600654815260200190815260200160002060008282540192505081905550803403600560006006548152602001908152602001600020600082825401925050819055506000806000600654815260200190815260200160002060008673ffffffffffffffffffffffffffffffffffffffff1673ffffffffffffffffffffffffffffffffffffffff16815260200190815260200160002054141561062257600160006006548152602001908152602001600020849080600181540180825580915050600190039060005260206000200160009091909190916101000a81548173ffffffffffffffffffffffffffffffffffffffff021916908373ffffffffffffffffffffffffffffffffffffffff1602179055505b600080600654815260200190815260200160002060008573ffffffffffffffffffffffffffffffffffffffff1673ffffffffffffffffffffffffffffffffffffffff16815260200190815260200160002060008154809291906001019190505550600060026000600654815260200190815260200160002060008573ffffffffffffffffffffffffffffffffffffffff1673ffffffffffffffffffffffffffffffffffffffff16815260200190815260200160002054141561075557600360006006548152602001908152602001600020839080600181540180825580915050600190039060005260206000200160009091909190916101000a81548173ffffffffffffffffffffffffffffffffffffffff021916908373ffffffffffffffffffffffffffffffffffffffff1602179055505b60026000600654815260200190815260200160002060008473ffffffffffffffffffffffffffffffffffffffff1673ffffffffffffffffffffffffffffffffffffffff168152602001908152602001600020600081548092919060010191905055506103e8600754141561086b577fa3e8abe698361c4c71f9d4f2fc61fa062884aea13101865a3354b18b7dec33da600654600460006006548152602001908152602001600020546005600060065481526020019081526020016000205460405180848152602001838152602001828152602001935050505060405180910390a161084260065484610a21565b5061084f60065484610de0565b5060066000815480929190600101919050555060006007819055505b600191505092915050565b60056020528060005260406000206000915090505481565b6000602052816000526040600020602052806000526040600020600091509150505481565b600360205281600052604060002081815481106108cc57fe5b906000526020600020016000915091509054906101000a900473ffffffffffffffffffffffffffffffffffffffff1681565b6002602052816000526040600020602052806000526040600020600091509150505481565b60046020528060005260406000206000915090505481565b6000610190821161094e578190506109bf565b8161019010801561096457506101906002028211155b156109735761019090506109bf565b8161019060020210801561099d575060046101906003028161099157fe5b04610190600202018211155b156109b157816101906003020390506109bf565b600482816109bb57fe5b0490505b919050565b600061019082116109d757819050610a02565b816101901080156109ed57506101906002028211155b156109fc576101909050610a02565b61019090505b919050565b60075481565b600060058281610a1957fe5b049050919050565b60008060046000858152602001908152602001600020549050606060016000868152602001908152602001600020805480602002602001604051908101604052809291908181526020018280548015610acf57602002820191906000526020600020905b8160009054906101000a900473ffffffffffffffffffffffffffffffffffffffff1673ffffffffffffffffffffffffffffffffffffffff1681526020019060010190808311610a85575b5050505050905060608151604051908082528060200260200182016040528015610b085781602001602082028036833780820191505090505b50905060008090505b8251811015610bb6576000838281518110610b2857fe5b602002602001015190506000610b8c6000808b815260200190815260200160002060008473ffffffffffffffffffffffffffffffffffffffff1673ffffffffffffffffffffffffffffffffffffffff168152602001908152602001600020546109c4565b905080848481518110610b9b57fe5b60200260200101818152505050508080600101915050610b11565b50600060646005850281610bc657fe5b049050808403935060008490506000600190505b8451811015610c755760006103e887868481518110610bf557fe5b60200260200101510281610c0557fe5b049050858281518110610c1457fe5b602002602001015173ffffffffffffffffffffffffffffffffffffffff166108fc829081150290604051600060405180830381858888f19350505050158015610c61573d6000803e3d6000fd5b508083039250508080600101915050610bda565b5083600081518110610c8357fe5b602002602001015173ffffffffffffffffffffffffffffffffffffffff166108fc829081150290604051600060405180830381858888f19350505050158015610cd0573d6000803e3d6000fd5b508673ffffffffffffffffffffffffffffffffffffffff166108fc839081150290604051600060405180830381858888f19350505050158015610d17573d6000803e3d6000fd5b50600460008981526020019081526020016000206000905560008090505b8451811015610db1576000808a81526020019081526020016000206000868381518110610d5e57fe5b602002602001015173ffffffffffffffffffffffffffffffffffffffff1673ffffffffffffffffffffffffffffffffffffffff168152602001908152602001600020600090558080600101915050610d35565b50600160008981526020019081526020016000206000610dd191906111a1565b60019550505050505092915050565b60008060056000858152602001908152602001600020549050606060036000868152602001908152602001600020805480602002602001604051908101604052809291908181526020018280548015610e8e57602002820191906000526020600020905b8160009054906101000a900473ffffffffffffffffffffffffffffffffffffffff1673ffffffffffffffffffffffffffffffffffffffff1681526020019060010190808311610e44575b5050505050905060608151604051908082528060200260200182016040528015610ec75781602001602082028036833780820191505090505b50905060008090505b8251811015610f76576000838281518110610ee757fe5b602002602001015190506000610f4c600260008b815260200190815260200160002060008473ffffffffffffffffffffffffffffffffffffffff1673ffffffffffffffffffffffffffffffffffffffff1681526020019081526020016000205461093b565b905080848481518110610f5b57fe5b60200260200101818152505050508080600101915050610ed0565b50600060646005850281610f8657fe5b049050808403935060008490506000600190505b84518110156110355760006103e887868481518110610fb557fe5b60200260200101510281610fc557fe5b049050858281518110610fd457fe5b602002602001015173ffffffffffffffffffffffffffffffffffffffff166108fc829081150290604051600060405180830381858888f19350505050158015611021573d6000803e3d6000fd5b508083039250508080600101915050610f9a565b508360008151811061104357fe5b602002602001015173ffffffffffffffffffffffffffffffffffffffff166108fc829081150290604051600060405180830381858888f19350505050158015611090573d6000803e3d6000fd5b508673ffffffffffffffffffffffffffffffffffffffff166108fc839081150290604051600060405180830381858888f193505050501580156110d7573d6000803e3d6000fd5b50600560008981526020019081526020016000206000905560008090505b845181101561117257600260008a8152602001908152602001600020600086838151811061111f57fe5b602002602001015173ffffffffffffffffffffffffffffffffffffffff1673ffffffffffffffffffffffffffffffffffffffff1681526020019081526020016000206000905580806001019150506110f5565b5060036000898152602001908152602001600020600061119291906111a1565b60019550505050505092915050565b50805460008255906000526020600020908101906111bf91906111c2565b50565b6111e491905b808211156111e05760008160009055506001016111c8565b5090565b9056fea2646970667358221220ba73449ad99b2ce803a90173ce91a2a1b9f48d5787c2e2e6aa4a3c7d354a791964736f6c63430006040033",
  "source": "pragma solidity 0.6.4;\n\nimport \"./IRelayerIncentivize.sol\";\n\n\ncontract RelayerIncentivize is IRelayerIncentivize {\n\n  uint256 constant roundSize=1000;\n  uint256 constant maximumWeight=400;\n\n  mapping( uint256 => mapping(address => uint256) ) public _headerRelayersSubmitCount;\n  mapping( uint256 => address payable[] ) public _headerRelayerAddressRecord;\n\n  mapping( uint256 => mapping(address => uint256) ) public _transferRelayersSubmitCount;\n  mapping( uint256 => address payable[] ) public _transferRelayerAddressRecord;\n\n  mapping( uint256 => uint256) public _collectedRewardForHeaderRelayerPerRound;\n  mapping( uint256 => uint256) public _collectedRewardForTransferRelayerPerRound;\n\n  uint256 public _roundSequence = 0;\n  uint256 public _countInRound=0;\n\n  event LogRewardPeriodExpire(uint256 sequence, uint256 roundHeaderRelayerReward, uint256 roundTransferRelayerReward);\n\n  function addReward(address payable headerRelayerAddr, address payable caller) external override payable returns (bool) {\n    _countInRound++;\n\n    uint256 reward = calculateRewardForHeaderRelayer(msg.value);\n    _collectedRewardForHeaderRelayerPerRound[_roundSequence] += reward;\n    _collectedRewardForTransferRelayerPerRound[_roundSequence] += msg.value - reward;\n\n    if (_headerRelayersSubmitCount[_roundSequence][headerRelayerAddr]==0){\n      _headerRelayerAddressRecord[_roundSequence].push(headerRelayerAddr);\n    }\n    _headerRelayersSubmitCount[_roundSequence][headerRelayerAddr]++;\n\n    if (_transferRelayersSubmitCount[_roundSequence][caller]==0){\n      _transferRelayerAddressRecord[_roundSequence].push(caller);\n    }\n    _transferRelayersSubmitCount[_roundSequence][caller]++;\n\n    if (_countInRound==roundSize){\n      emit LogRewardPeriodExpire(_roundSequence, _collectedRewardForHeaderRelayerPerRound[_roundSequence], _collectedRewardForTransferRelayerPerRound[_roundSequence]);\n\n      claimHeaderRelayerReward(_roundSequence, caller);\n      claimTransferRelayerReward(_roundSequence, caller);\n\n      _roundSequence++;\n      _countInRound = 0;\n    }\n    return true;\n  }\n\n  //TODO need further discussion\n  function calculateRewardForHeaderRelayer(uint256 reward) internal pure returns (uint256) {\n    return reward/5; //20%\n  }\n\n  function claimHeaderRelayerReward(uint256 sequence, address payable caller) internal returns (bool) {\n    uint256 totalReward = _collectedRewardForHeaderRelayerPerRound[sequence];\n\n    address payable[] memory relayers = _headerRelayerAddressRecord[sequence];\n    uint256[] memory relayerWeight = new uint256[](relayers.length);\n    for(uint256 index = 0; index < relayers.length; index++) {\n      address relayer = relayers[index];\n      uint256 weight = calculateHeaderRelayerWeight(_headerRelayersSubmitCount[sequence][relayer]);\n      relayerWeight[index] = weight;\n    }\n\n    uint256 callerReward = totalReward * 5/100; //TODO need further discussion\n    totalReward = totalReward - callerReward;\n    uint256 remainReward = totalReward;\n    for(uint256 index = 1; index < relayers.length; index++) {\n      uint256 reward = relayerWeight[index]*totalReward/roundSize;\n      relayers[index].transfer(reward);\n      remainReward = remainReward-reward;\n    }\n    relayers[0].transfer(remainReward);\n    caller.transfer(callerReward);\n\n    delete _collectedRewardForHeaderRelayerPerRound[sequence];\n    for (uint256 index = 0; index < relayers.length; index++){\n      delete _headerRelayersSubmitCount[sequence][relayers[index]];\n    }\n    delete _headerRelayerAddressRecord[sequence];\n    return true;\n  }\n\n  function claimTransferRelayerReward(uint256 sequence, address payable caller) internal returns (bool) {\n    uint256 totalReward = _collectedRewardForTransferRelayerPerRound[sequence];\n\n    address payable[] memory relayers = _transferRelayerAddressRecord[sequence];\n    uint256[] memory relayerWeight = new uint256[](relayers.length);\n    for(uint256 index = 0; index < relayers.length; index++) {\n      address relayer = relayers[index];\n      uint256 weight = calculateTransferRelayerWeight(_transferRelayersSubmitCount[sequence][relayer]);\n      relayerWeight[index] = weight;\n    }\n\n    uint256 callerReward = totalReward * 5/100; //TODO need further discussion\n    totalReward = totalReward - callerReward;\n    uint256 remainReward = totalReward;\n    for(uint256 index = 1; index < relayers.length; index++) {\n      uint256 reward = relayerWeight[index]*totalReward/roundSize;\n      relayers[index].transfer(reward);\n      remainReward = remainReward-reward;\n    }\n    relayers[0].transfer(remainReward);\n    caller.transfer(callerReward);\n\n    delete _collectedRewardForTransferRelayerPerRound[sequence];\n    for (uint256 index = 0; index < relayers.length; index++){\n      delete _transferRelayersSubmitCount[sequence][relayers[index]];\n    }\n    delete _transferRelayerAddressRecord[sequence];\n    return true;\n  }\n\n  function calculateTransferRelayerWeight(uint256 count) public pure returns(uint256) {\n    if (count <= maximumWeight) {\n      return count;\n    } else if (maximumWeight < count && count <= 2*maximumWeight) {\n      return maximumWeight;\n    } else if (2*maximumWeight < count && count <= (2*maximumWeight + 3*maximumWeight/4 )) {\n      return 3*maximumWeight - count;\n    } else {\n      return count/4;\n    }\n  }\n\n  function calculateHeaderRelayerWeight(uint256 count) public pure returns(uint256) {\n    if (count <= maximumWeight) {\n      return count;\n    } else if (maximumWeight < count && count <= 2*maximumWeight) {\n      return maximumWeight;\n    } else {\n      return maximumWeight;\n    }\n  }\n}",
  "sourcePath": "D:\\project_data\\smart_contract\\project\\bscTest1\\contracts\\RelayerIncentivize.sol",
  "compiler": {
    "name": "solc",
    "version": "0.6.4+commit.1dca32f3.Emscripten.clang"
  },
  "schemaVersion": "3.4.3",
  "updatedAt": "2021-12-22T19:15:56.933Z",
  "devdoc": {
    "methods": {}
  },
  "userdoc": {
    "methods": {}
  }
}