{
  "contractName": "TendermintLightClient",
  "abi": [
    {
      "inputs": [],
      "stateMutability": "nonpayable",
      "type": "constructor"
    },
    {
      "anonymous": false,
      "inputs": [
        {
          "indexed": false,
          "internalType": "uint64",
          "name": "initHeight",
          "type": "uint64"
        },
        {
          "indexed": false,
          "internalType": "bytes32",
          "name": "appHash",
          "type": "bytes32"
        }
      ],
      "name": "InitConsensusState",
      "type": "event"
    },
    {
      "anonymous": false,
      "inputs": [
        {
          "indexed": false,
          "internalType": "uint64",
          "name": "height",
          "type": "uint64"
        },
        {
          "indexed": false,
          "internalType": "uint64",
          "name": "preValidatorSetChangeHeight",
          "type": "uint64"
        },
        {
          "indexed": false,
          "internalType": "bytes32",
          "name": "appHash",
          "type": "bytes32"
        },
        {
          "indexed": false,
          "internalType": "bool",
          "name": "validatorChanged",
          "type": "bool"
        }
      ],
      "name": "SyncConsensusState",
      "type": "event"
    },
    {
      "inputs": [
        {
          "internalType": "uint64",
          "name": "",
          "type": "uint64"
        }
      ],
      "name": "_BBCLightClientConsensusState",
      "outputs": [
        {
          "internalType": "uint64",
          "name": "preValidatorSetChangeHeight",
          "type": "uint64"
        },
        {
          "internalType": "bytes32",
          "name": "appHash",
          "type": "bytes32"
        },
        {
          "internalType": "bytes32",
          "name": "curValidatorSetHash",
          "type": "bytes32"
        },
        {
          "internalType": "bytes",
          "name": "nextValidatorSet",
          "type": "bytes"
        }
      ],
      "stateMutability": "view",
      "type": "function"
    },
    {
      "inputs": [],
      "name": "_alreadyInit",
      "outputs": [
        {
          "internalType": "bool",
          "name": "",
          "type": "bool"
        }
      ],
      "stateMutability": "view",
      "type": "function"
    },
    {
      "inputs": [],
      "name": "_chainID",
      "outputs": [
        {
          "internalType": "string",
          "name": "",
          "type": "string"
        }
      ],
      "stateMutability": "view",
      "type": "function"
    },
    {
      "inputs": [],
      "name": "_initConsensusStateBytes",
      "outputs": [
        {
          "internalType": "bytes",
          "name": "",
          "type": "bytes"
        }
      ],
      "stateMutability": "view",
      "type": "function"
    },
    {
      "inputs": [],
      "name": "_initialHeight",
      "outputs": [
        {
          "internalType": "uint64",
          "name": "",
          "type": "uint64"
        }
      ],
      "stateMutability": "view",
      "type": "function"
    },
    {
      "inputs": [],
      "name": "_latestHeight",
      "outputs": [
        {
          "internalType": "uint64",
          "name": "",
          "type": "uint64"
        }
      ],
      "stateMutability": "view",
      "type": "function"
    },
    {
      "inputs": [],
      "name": "_relayerHubContract",
      "outputs": [
        {
          "internalType": "address",
          "name": "",
          "type": "address"
        }
      ],
      "stateMutability": "view",
      "type": "function"
    },
    {
      "inputs": [],
      "name": "_rewardForValidatorSetChange",
      "outputs": [
        {
          "internalType": "uint256",
          "name": "",
          "type": "uint256"
        }
      ],
      "stateMutability": "view",
      "type": "function"
    },
    {
      "inputs": [
        {
          "internalType": "uint64",
          "name": "",
          "type": "uint64"
        }
      ],
      "name": "_submitters",
      "outputs": [
        {
          "internalType": "address payable",
          "name": "",
          "type": "address"
        }
      ],
      "stateMutability": "view",
      "type": "function"
    },
    {
      "inputs": [],
      "name": "_systemRewardContract",
      "outputs": [
        {
          "internalType": "address",
          "name": "",
          "type": "address"
        }
      ],
      "stateMutability": "view",
      "type": "function"
    },
    {
      "inputs": [],
      "name": "init",
      "outputs": [],
      "stateMutability": "nonpayable",
      "type": "function"
    },
    {
      "inputs": [
        {
          "internalType": "bytes",
          "name": "header",
          "type": "bytes"
        },
        {
          "internalType": "uint64",
          "name": "height",
          "type": "uint64"
        }
      ],
      "name": "syncTendermintHeader",
      "outputs": [
        {
          "internalType": "bool",
          "name": "",
          "type": "bool"
        }
      ],
      "stateMutability": "nonpayable",
      "type": "function"
    },
    {
      "inputs": [
        {
          "internalType": "uint64",
          "name": "height",
          "type": "uint64"
        }
      ],
      "name": "isHeaderSynced",
      "outputs": [
        {
          "internalType": "bool",
          "name": "",
          "type": "bool"
        }
      ],
      "stateMutability": "view",
      "type": "function"
    },
    {
      "inputs": [
        {
          "internalType": "uint64",
          "name": "height",
          "type": "uint64"
        }
      ],
      "name": "getAppHash",
      "outputs": [
        {
          "internalType": "bytes32",
          "name": "",
          "type": "bytes32"
        }
      ],
      "stateMutability": "view",
      "type": "function"
    },
    {
      "inputs": [
        {
          "internalType": "uint64",
          "name": "height",
          "type": "uint64"
        }
      ],
      "name": "getSubmitter",
      "outputs": [
        {
          "internalType": "address payable",
          "name": "",
          "type": "address"
        }
      ],
      "stateMutability": "view",
      "type": "function"
    }
  ],
  "bytecode": "0x608060405234801561001057600080fd5b50611b30806100206000396000f3fe608060405234801561001057600080fd5b50600436106100f55760003560e01c8063cba510a911610097578063df5fe70411610066578063df5fe70414610526578063e1c7392a14610576578063f5af336614610580578063fc73c8b514610603576100f5565b8063cba510a914610373578063d8169879146103bf578063dcb2af4b14610464578063dda83148146104ae576100f5565b80637945c2f3116100d35780637945c2f31461016c578063a9bfd0f11461019e578063bc53477e14610278578063beab7131146102f0576100f5565b80633ae6005d146100fa5780634ac009d91461012c5780636547bb061461014a575b600080fd5b61010261064d565b604051808267ffffffffffffffff1667ffffffffffffffff16815260200191505060405180910390f35b610134610667565b6040518082815260200191505060405180910390f35b610152610672565b604051808215151515815260200191505060405180910390f35b610174610685565b604051808267ffffffffffffffff1667ffffffffffffffff16815260200191505060405180910390f35b6101d4600480360360208110156101b457600080fd5b81019080803567ffffffffffffffff16906020019092919050505061069f565b604051808567ffffffffffffffff1667ffffffffffffffff16815260200184815260200183815260200180602001828103825283818151815260200191508051906020019080838360005b8381101561023a57808201518184015260208101905061021f565b50505050905090810190601f1680156102675780820380516001836020036101000a031916815260200191505b509550505050505060405180910390f35b6102ae6004803603602081101561028e57600080fd5b81019080803567ffffffffffffffff16906020019092919050505061077b565b604051808273ffffffffffffffffffffffffffffffffffffffff1673ffffffffffffffffffffffffffffffffffffffff16815260200191505060405180910390f35b6102f86107ae565b6040518080602001828103825283818151815260200191508051906020019080838360005b8381101561033857808201518184015260208101905061031d565b50505050905090810190601f1680156103655780820380516001836020036101000a031916815260200191505b509250505060405180910390f35b6103a96004803603602081101561038957600080fd5b81019080803567ffffffffffffffff1690602001909291905050506107e7565b6040518082815260200191505060405180910390f35b61044a600480360360408110156103d557600080fd5b81019080803590602001906401000000008111156103f257600080fd5b82018360208201111561040457600080fd5b8035906020019184600183028401116401000000008311171561042657600080fd5b9091929391929390803567ffffffffffffffff16906020019092919050505061081a565b604051808215151515815260200191505060405180910390f35b61046c611364565b604051808273ffffffffffffffffffffffffffffffffffffffff1673ffffffffffffffffffffffffffffffffffffffff16815260200191505060405180910390f35b6104e4600480360360208110156104c457600080fd5b81019080803567ffffffffffffffff16906020019092919050505061136a565b604051808273ffffffffffffffffffffffffffffffffffffffff1673ffffffffffffffffffffffffffffffffffffffff16815260200191505060405180910390f35b61055c6004803603602081101561053c57600080fd5b81019080803567ffffffffffffffff1690602001909291905050506113bb565b604051808215151515815260200191505060405180910390f35b61057e61143b565b005b610588611693565b6040518080602001828103825283818151815260200191508051906020019080838360005b838110156105c85780820151818401526020810190506105ad565b50505050905090810190601f1680156105f55780820380516001836020036101000a031916815260200191505b509250505060405180910390f35b61060b6116af565b604051808273ffffffffffffffffffffffffffffffffffffffff1673ffffffffffffffffffffffffffffffffffffffff16815260200191505060405180910390f35b600260009054906101000a900467ffffffffffffffff1681565b662386f26fc1000081565b600260109054906101000a900460ff1681565b600260089054906101000a900467ffffffffffffffff1681565b60006020528060005260406000206000915090508060000160009054906101000a900467ffffffffffffffff1690806001015490806002015490806003018054600181600116156101000203166002900480601f0160208091040260200160405190810160405280929190818152602001828054600181600116156101000203166002900480156107715780601f1061074657610100808354040283529160200191610771565b820191906000526020600020905b81548152906001019060200180831161075457829003601f168201915b5050505050905084565b60016020528060005260406000206000915054906101000a900473ffffffffffffffffffffffffffffffffffffffff1681565b6040518060400160405280601281526020017f42696e616e63652d436861696e2d4e696c65000000000000000000000000000081525081565b60008060008367ffffffffffffffff1667ffffffffffffffff168152602001908152602001600020600101549050919050565b600061100673ffffffffffffffffffffffffffffffffffffffff1663541d5548336040518263ffffffff1660e01b8152600401808273ffffffffffffffffffffffffffffffffffffffff1673ffffffffffffffffffffffffffffffffffffffff16815260200191505060206040518083038186803b15801561089b57600080fd5b505afa1580156108af573d6000803e3d6000fd5b505050506040513d60208110156108c557600080fd5b8101908080519060200190929190505050610948576040517f08c379a000000000000000000000000000000000000000000000000000000000815260040180806020018281038252601f8152602001807f746865206d73672073656e646572206973206e6f7420612072656c617965720081525060200191505060405180910390fd5b600073ffffffffffffffffffffffffffffffffffffffff16600160008467ffffffffffffffff1667ffffffffffffffff16815260200190815260200160002060009054906101000a900473ffffffffffffffffffffffffffffffffffffffff1673ffffffffffffffffffffffffffffffffffffffff1614610a31576040517f08c379a000000000000000000000000000000000000000000000000000000000815260040180806020018281038252601c8152602001807f63616e27742073796e63206475706c696361746564206865616465720000000081525060200191505060405180910390fd5b600260009054906101000a900467ffffffffffffffff1667ffffffffffffffff168267ffffffffffffffff1611610ab3576040517f08c379a0000000000000000000000000000000000000000000000000000000008152600401808060200182810382526027815260200180611ad46027913960400191505060405180910390fd5b6000600260089054906101000a900467ffffffffffffffff169050610ad66118cc565b6000808367ffffffffffffffff1667ffffffffffffffff1681526020019081526020016000206040518060800160405290816000820160009054906101000a900467ffffffffffffffff1667ffffffffffffffff1667ffffffffffffffff1681526020016001820154815260200160028201548152602001600382018054600181600116156101000203166002900480601f016020809104026020016040519081016040528092919081815260200182805460018160011615610100020316600290048015610be65780601f10610bbb57610100808354040283529160200191610be6565b820191906000526020600020905b815481529060010190602001808311610bc957829003601f168201915b50505050508152505090505b600260009054906101000a900467ffffffffffffffff1667ffffffffffffffff168267ffffffffffffffff1610610d6b578367ffffffffffffffff168267ffffffffffffffff161015610c4457610d6b565b806000015191506000808367ffffffffffffffff1667ffffffffffffffff1681526020019081526020016000206040518060800160405290816000820160009054906101000a900467ffffffffffffffff1667ffffffffffffffff1667ffffffffffffffff1681526020016001820154815260200160028201548152602001600382018054600181600116156101000203166002900480601f016020809104026020016040519081016040528092919081815260200182805460018160011615610100020316600290048015610d5b5780601f10610d3057610100808354040283529160200191610d5b565b820191906000526020600020905b815481529060010190602001808311610d3e57829003601f168201915b5050505050815250509050610bf2565b60008160600151511415610eaa57806000015191506000808367ffffffffffffffff1667ffffffffffffffff1681526020019081526020016000206003018054600181600116156101000203166002900480601f016020809104026020016040519081016040528092919081815260200182805460018160011615610100020316600290048015610e3d5780601f10610e1257610100808354040283529160200191610e3d565b820191906000526020600020905b815481529060010190602001808311610e2057829003601f168201915b5050505050816060018190525060008160600151511415610ea9576040517f08c379a0000000000000000000000000000000000000000000000000000000008152600401808060200182810382526021815260200180611a806021913960400191505060405180910390fd5b5b6000816060015151608801905060608787905082016040519080825280601f01601f191660200182016040528015610ef15781602001600182028036833780820191505090505b5090506000610eff826116b5565b9050610f0d848683866116c2565b610f62576040517f08c379a00000000000000000000000000000000000000000000000000000000081526004018080602001828103825260238152602001806119cd6023913960400191505060405180910390fd5b60008382019150610fb68a8a8080601f016020809104026020016040519081016040528093929190818152602001838380828437600081840152601f19601f82011690508083019250505050505050611796565b8095508192505050610fc98183866117a8565b60208351019350610fd8611904565b6110008186866064600019fa610fed57600080fd5b60008101519450600080905060007f01000000000000000000000000000000000000000000000000000000000000008716146110d0576001905061100273ffffffffffffffffffffffffffffffffffffffff16639a99b4f033662386f26fc100006040518363ffffffff1660e01b8152600401808373ffffffffffffffffffffffffffffffffffffffff1673ffffffffffffffffffffffffffffffffffffffff16815260200182815260200192505050600060405180830381600087803b1580156110b757600080fd5b505af11580156110cb573d6000803e3d6000fd5b505050505b67ffffffffffffffff8616955060208201935060006110f1858884156117f1565b80925081995050508a67ffffffffffffffff168167ffffffffffffffff1614611165576040517f08c379a0000000000000000000000000000000000000000000000000000000008152600401808060200182810382526033815260200180611aa16033913960400191505060405180910390fd5b33600160008d67ffffffffffffffff1667ffffffffffffffff16815260200190815260200160002060006101000a81548173ffffffffffffffffffffffffffffffffffffffff021916908373ffffffffffffffffffffffffffffffffffffffff16021790555088886000019067ffffffffffffffff16908167ffffffffffffffff1681525050876000808d67ffffffffffffffff1667ffffffffffffffff16815260200190815260200160002060008201518160000160006101000a81548167ffffffffffffffff021916908367ffffffffffffffff16021790555060208201518160010155604082015181600201556060820151816003019080519060200190611271929190611927565b50905050600260089054906101000a900467ffffffffffffffff1667ffffffffffffffff168b67ffffffffffffffff1611156112d1578a600260086101000a81548167ffffffffffffffff021916908367ffffffffffffffff1602179055505b7f2641c9932368bef6eec1f666e32e7cba680c3e4c6e158a449d1f2601ad47926e8b8a8a6020015185604051808567ffffffffffffffff1667ffffffffffffffff1681526020018467ffffffffffffffff1667ffffffffffffffff1681526020018381526020018215151515815260200194505050505060405180910390a1600199505050505050505050509392505050565b61100681565b6000600160008367ffffffffffffffff1667ffffffffffffffff16815260200190815260200160002060009054906101000a900473ffffffffffffffffffffffffffffffffffffffff169050919050565b60008073ffffffffffffffffffffffffffffffffffffffff16600160008467ffffffffffffffff1667ffffffffffffffff16815260200190815260200160002060009054906101000a900473ffffffffffffffffffffffffffffffffffffffff1673ffffffffffffffffffffffffffffffffffffffff1614159050919050565b600260109054906101000a900460ff16156114be576040517f08c379a00000000000000000000000000000000000000000000000000000000081526004018080602001828103825260138152602001807f616c726561647920696e697469616c697a65640000000000000000000000000081525060200191505060405180910390fd5b6000806114e26040518060c00160405280609081526020016119f060909139611796565b80925081935050506114f26118cc565b6000611500848460006117f1565b80925081935050506000826000019067ffffffffffffffff16908167ffffffffffffffff1681525050816000808367ffffffffffffffff1667ffffffffffffffff16815260200190815260200160002060008201518160000160006101000a81548167ffffffffffffffff021916908367ffffffffffffffff160217905550602082015181600101556040820151816002015560608201518160030190805190602001906115af929190611927565b5090505080600260006101000a81548167ffffffffffffffff021916908367ffffffffffffffff16021790555080600260086101000a81548167ffffffffffffffff021916908367ffffffffffffffff1602179055506001600260106101000a81548160ff0219169083151502179055507f6d0670f0a020e865a8cacaeeb070b48d5522fd0f687bcbb111a1d6c9b6ae66ab600260009054906101000a900467ffffffffffffffff168360200151604051808367ffffffffffffffff1667ffffffffffffffff1681526020018281526020019250505060405180910390a150505050565b6040518060c00160405280609081526020016119f06090913981565b61100281565b6000602082019050919050565b6000806028866060015151816116d457fe5b049050806028028385010393506000806116f18860600151611796565b80925081935050506117048287836117a8565b6020860395506000886040015190508087526020870396508860200151905080875260208703965087875260088703965060606040518060400160405280601281526020017f42696e616e63652d436861696e2d4e696c650000000000000000000000000000815250905060208101518852602088039750602087039650868852600195505050505050949350505050565b60008082519050602083019150915091565b5b602081106117cc57825182526020820191506020830192506020810390506117a9565b60006001826020036101000a0390508019845116818451168181178552505050505050565b6117f96118cc565b6000806028606886038161180957fe5b0490506008860195506000865190506020870196506000875190506020880197506000885190506118386118cc565b8281602001818152505081816040018181525050876118b957600080866028026040519080825280601f01601f19166020018201604052801561188a5781602001600182028036833780820191505090505b5083606001819052506118a08360600151611796565b80925081935050506118b660208d0183836117a8565b50505b8084965096505050505050935093915050565b6040518060800160405280600067ffffffffffffffff1681526020016000801916815260200160008019168152602001606081525090565b604051806110000160405280608090602082028036833780820191505090505090565b828054600181600116156101000203166002900490600052602060002090601f016020900481019282601f1061196857805160ff1916838001178555611996565b82800160010185558215611996579182015b8281111561199557825182559160200191906001019061197a565b5b5090506119a391906119a7565b5090565b6119c991905b808211156119c55760008160009055506001016119ad565b5090565b9056fe6661696c656420746f2073657269616c697a6520636f6e73656e737573207374617465746573742d636861696e00000000000000000000000000000000000000000000000000000000000229eca254b3859bffefaf85f4c95da9fbd26527766b784272789c30ec56b380b6eb96442aaab207bc59978ba3dd477690f5c5872334fc39e627723daa97e441e88ba4515150ec3182bc82593df36f8abb25a619187fcfab7e552b94e64ed2deed000000e8d4a510006661696c656420746f206c6f61642076616c696461746f722073657420646174616865616465722068656967687420646f65736e277420657175616c20746f20746865207370656369666965642068656967687463616e27742073796e6320686561646572206265666f7265205f696e697469616c486569676874a26469706673582212201294b8d57435dd66b028bace137451d8caaf8bb4e27f8a39ded7992f2b02209264736f6c63430006040033",
  "source": "pragma solidity 0.6.4;\r\n\r\nimport \"./Memory.sol\";\r\nimport \"./ILightClient.sol\";\r\nimport \"./ISystemReward.sol\";\r\nimport \"./IRelayerHub.sol\";\r\n\r\ncontract TendermintLightClient is ILightClient {\r\n\r\n  struct ConsensusState {\r\n    uint64  preValidatorSetChangeHeight;\r\n    bytes32 appHash;\r\n    bytes32 curValidatorSetHash;\r\n    bytes   nextValidatorSet;\r\n  }\r\n\r\n  mapping(uint64 => ConsensusState) public _BBCLightClientConsensusState;\r\n  mapping(uint64 => address payable) public _submitters;\r\n  uint64 public _initialHeight;\r\n  uint64 public _latestHeight;\r\n  bool public _alreadyInit;\r\n\r\n\r\n  address constant public _relayerHubContract=0x0000000000000000000000000000000000001006;\r\n  address constant public _systemRewardContract=0x0000000000000000000000000000000000001002;\r\n\r\n  string constant public _chainID=\"Binance-Chain-Nile\";\r\n  bytes constant public _initConsensusStateBytes = hex\"746573742d636861696e00000000000000000000000000000000000000000000000000000000000229eca254b3859bffefaf85f4c95da9fbd26527766b784272789c30ec56b380b6eb96442aaab207bc59978ba3dd477690f5c5872334fc39e627723daa97e441e88ba4515150ec3182bc82593df36f8abb25a619187fcfab7e552b94e64ed2deed000000e8d4a51000\";\r\n  uint256 constant public _rewardForValidatorSetChange = 10000000000000000;\r\n\r\n  event InitConsensusState(uint64 initHeight, bytes32 appHash);\r\n  event SyncConsensusState(uint64 height, uint64 preValidatorSetChangeHeight, bytes32 appHash, bool validatorChanged);\r\n\r\n  /* solium-disable-next-line */\r\n  constructor() public {}\r\n\r\n\r\n  modifier onlyRelayer() {\r\n    require(IRelayerHub(_relayerHubContract).isRelayer(msg.sender), \"the msg sender is not a relayer\");\r\n    _;\r\n  }\r\n\r\n  function init() public {\r\n    require(!_alreadyInit, \"already initialized\");\r\n\r\n    uint256 pointer;\r\n    uint256 length;\r\n    (pointer, length) = Memory.fromBytes(_initConsensusStateBytes);\r\n\r\n    ConsensusState memory cs;\r\n    uint64 height;\r\n    (cs, height) = decodeConsensusState(pointer, length, false);\r\n    cs.preValidatorSetChangeHeight = 0;\r\n    _BBCLightClientConsensusState[height] = cs;\r\n\r\n    _initialHeight = height;\r\n    _latestHeight = height;\r\n    _alreadyInit = true;\r\n\r\n    emit InitConsensusState(_initialHeight, cs.appHash);\r\n  }\r\n  \r\n  function syncTendermintHeader(bytes calldata header, uint64 height) external onlyRelayer returns (bool) {\r\n    require(_submitters[height] == address(0x0), \"can't sync duplicated header\");\r\n    require(height > _initialHeight, \"can't sync header before _initialHeight\");\r\n\r\n    uint64 preValidatorSetChangeHeight = _latestHeight;\r\n    ConsensusState memory cs = _BBCLightClientConsensusState[preValidatorSetChangeHeight];\r\n    for(; preValidatorSetChangeHeight >= _initialHeight;) {\r\n      if (preValidatorSetChangeHeight < height) {\r\n        // find nearest previous height\r\n        break;\r\n      }\r\n      preValidatorSetChangeHeight = cs.preValidatorSetChangeHeight;\r\n      cs = _BBCLightClientConsensusState[preValidatorSetChangeHeight];\r\n    }\r\n    if (cs.nextValidatorSet.length == 0) {\r\n      preValidatorSetChangeHeight = cs.preValidatorSetChangeHeight;\r\n      cs.nextValidatorSet = _BBCLightClientConsensusState[preValidatorSetChangeHeight].nextValidatorSet;\r\n      require(cs.nextValidatorSet.length != 0, \"failed to load validator set data\");\r\n    }\r\n\r\n    //32 + 32 + 8 + 32 + 32 + cs.nextValidatorSet.length;\r\n    uint256 length = 136 + cs.nextValidatorSet.length;\r\n    bytes memory input = new bytes(length+header.length);\r\n    uint256 ptr = Memory.dataPtr(input);\r\n    require(encodeConsensusState(cs, preValidatorSetChangeHeight, ptr, length), \"failed to serialize consensus state\");\r\n\r\n    // write header to input\r\n    uint256 src;\r\n    ptr = ptr+length;\r\n    (src, length) = Memory.fromBytes(header);\r\n    Memory.copy(src, ptr, length);\r\n\r\n    length = input.length+32;\r\n    // Maximum validator quantity is 99\r\n    bytes32[128] memory result;\r\n    /* solium-disable-next-line */\r\n    assembly {\r\n    // call validateTendermintHeader precompile contract\r\n    // Contract address: 0x64\r\n      if iszero(staticcall(not(0), 0x64, input, length, result, 4096)) {\r\n        revert(0, 0)\r\n      }\r\n    }\r\n\r\n    //Judge if the validator set is changed\r\n    /* solium-disable-next-line */\r\n    assembly {\r\n      length := mload(add(result, 0))\r\n    }\r\n    bool validatorChanged = false;\r\n    if ((length&0x0100000000000000000000000000000000000000000000000000000000000000)!=0x00) {\r\n      validatorChanged = true;\r\n      ISystemReward(_systemRewardContract).claimRewards(msg.sender, _rewardForValidatorSetChange);//TODO further discussion about reward amount\r\n    }\r\n    length = length&0x000000000000000000000000000000000000000000000000ffffffffffffffff;\r\n\r\n    /* solium-disable-next-line */\r\n    assembly {\r\n      ptr := add(result, 32)\r\n    }\r\n\r\n    uint64 actualHeaderHeight;\r\n    (cs, actualHeaderHeight) = decodeConsensusState(ptr, length, !validatorChanged);\r\n    require(actualHeaderHeight == height, \"header height doesn't equal to the specified height\");\r\n\r\n    _submitters[height] = msg.sender;\r\n    cs.preValidatorSetChangeHeight = preValidatorSetChangeHeight;\r\n    _BBCLightClientConsensusState[height] = cs;\r\n    if (height > _latestHeight) {\r\n      _latestHeight = height;\r\n    }\r\n\r\n    emit SyncConsensusState(height, preValidatorSetChangeHeight, cs.appHash, validatorChanged);\r\n\r\n    return true;\r\n  }\r\n\r\n  function isHeaderSynced(uint64 height) external override view returns (bool) {\r\n    return _submitters[height] != address(0x0);\r\n  }\r\n\r\n  function getAppHash(uint64 height) external override view returns (bytes32) {\r\n    return _BBCLightClientConsensusState[height].appHash;\r\n  }\r\n\r\n  function getSubmitter(uint64 height) external override view returns (address payable) {\r\n    return _submitters[height];\r\n  }\r\n\r\n  // | length   | _chainID   | height   | appHash  | curValidatorSetHash | [{validator pubkey, voting power}] |\r\n  // | 32 bytes | 32 bytes   | 8 bytes  | 32 bytes | 32 bytes            | [{32 bytes, 8 bytes}]              |\r\n  /* solium-disable-next-line */\r\n  function encodeConsensusState(ConsensusState memory cs, uint64 height, uint256 outputPtr, uint256 size) internal pure returns (bool) {\r\n    uint256 validatorQuantity = cs.nextValidatorSet.length/40;\r\n\r\n    outputPtr = outputPtr + size - 40 * validatorQuantity;\r\n\r\n    uint256 src;\r\n    uint256 length;\r\n    (src, length) = Memory.fromBytes(cs.nextValidatorSet);\r\n    Memory.copy(src, outputPtr, length);\r\n    outputPtr = outputPtr-32;\r\n\r\n    bytes32 hash = cs.curValidatorSetHash;\r\n    /* solium-disable-next-line */\r\n    assembly {\r\n      mstore(outputPtr, hash)\r\n    }\r\n    outputPtr = outputPtr-32;\r\n\r\n    hash = cs.appHash;\r\n    /* solium-disable-next-line */\r\n    assembly {\r\n      mstore(outputPtr, hash)\r\n    }\r\n    outputPtr = outputPtr-32;\r\n\r\n    /* solium-disable-next-line */\r\n    assembly {\r\n      mstore(outputPtr, height)\r\n    }\r\n    outputPtr = outputPtr-8;\r\n\r\n    bytes memory chainIDBytes = bytes(_chainID);\r\n    /* solium-disable-next-line */\r\n    assembly {\r\n      mstore(outputPtr, mload(add(chainIDBytes, 32)))\r\n    }\r\n    outputPtr = outputPtr-32;\r\n\r\n    // size doesn't contain length\r\n    size = size-32;\r\n    /* solium-disable-next-line */\r\n    assembly {\r\n      mstore(outputPtr, size)\r\n    }\r\n\r\n    return true;\r\n  }\r\n\r\n  // | _chainID  | height   | appHash  | curValidatorSetHash | [{validator pubkey, voting power}] |\r\n  // | 32 bytes  | 8 bytes  | 32 bytes | 32 bytes            | [{32 bytes, 8 bytes}]              |\r\n  /* solium-disable-next-line */\r\n  function decodeConsensusState(uint256 ptr, uint256 size, bool leaveOutValidatorSet) internal pure returns(ConsensusState memory, uint64) {\r\n    // 104 = 32 +32 +8 + 32 +32\r\n    uint256 validatorSetLength = (size-104)/40;\r\n\r\n    ptr = ptr+8;\r\n    uint64 height;\r\n    /* solium-disable-next-line */\r\n    assembly {\r\n      height := mload(ptr)\r\n    }\r\n\r\n    ptr = ptr+32;\r\n    bytes32 appHash;\r\n    /* solium-disable-next-line */\r\n    assembly {\r\n      appHash := mload(ptr)\r\n    }\r\n\r\n    ptr = ptr+32;\r\n    bytes32 curValidatorSetHash;\r\n    /* solium-disable-next-line */\r\n    assembly {\r\n      curValidatorSetHash := mload(ptr)\r\n    }\r\n\r\n    ConsensusState memory cs;\r\n    cs.appHash = appHash;\r\n    cs.curValidatorSetHash = curValidatorSetHash;\r\n\r\n    if (!leaveOutValidatorSet) {\r\n      uint256 dest;\r\n      uint256 length;\r\n      cs.nextValidatorSet = new bytes(40*validatorSetLength);\r\n      (dest,length) = Memory.fromBytes(cs.nextValidatorSet);\r\n\r\n      Memory.copy(ptr+32, dest, length);\r\n    }\r\n\r\n    return (cs, height);\r\n  }\r\n}",
  "sourcePath": "D:\\myfile\\developer\\smart_contract\\pro\\smartContract_slimeTest1\\contracts\\TendermintLightClient.sol",
  "compiler": {
    "name": "solc",
    "version": "0.6.4+commit.1dca32f3.Emscripten.clang"
  },
  "schemaVersion": "3.4.3",
  "updatedAt": "2021-12-23T07:14:23.924Z",
  "devdoc": {
    "methods": {}
  },
  "userdoc": {
    "methods": {}
  }
}