{
  "contractName": "TokenHub",
  "abi": [
    {
      "inputs": [],
      "stateMutability": "nonpayable",
      "type": "constructor"
    },
    {
      "anonymous": false,
      "inputs": [
        {
          "indexed": false,
          "internalType": "uint256",
          "name": "sequence",
          "type": "uint256"
        },
        {
          "indexed": false,
          "internalType": "uint256[]",
          "name": "amounts",
          "type": "uint256[]"
        },
        {
          "indexed": false,
          "internalType": "address",
          "name": "contractAddr",
          "type": "address"
        },
        {
          "indexed": false,
          "internalType": "bytes32",
          "name": "bep2TokenSymbol",
          "type": "bytes32"
        },
        {
          "indexed": false,
          "internalType": "uint256",
          "name": "expireTime",
          "type": "uint256"
        },
        {
          "indexed": false,
          "internalType": "uint256",
          "name": "relayFee",
          "type": "uint256"
        }
      ],
      "name": "LogBatchTransferOut",
      "type": "event"
    },
    {
      "anonymous": false,
      "inputs": [
        {
          "indexed": false,
          "internalType": "uint256",
          "name": "sequence",
          "type": "uint256"
        },
        {
          "indexed": false,
          "internalType": "address[]",
          "name": "recipientAddrs",
          "type": "address[]"
        },
        {
          "indexed": false,
          "internalType": "address[]",
          "name": "refundAddrs",
          "type": "address[]"
        }
      ],
      "name": "LogBatchTransferOutAddrs",
      "type": "event"
    },
    {
      "anonymous": false,
      "inputs": [
        {
          "indexed": false,
          "internalType": "uint256",
          "name": "sequence",
          "type": "uint256"
        },
        {
          "indexed": false,
          "internalType": "address",
          "name": "contractAddr",
          "type": "address"
        },
        {
          "indexed": false,
          "internalType": "bytes32",
          "name": "bep2TokenSymbol",
          "type": "bytes32"
        }
      ],
      "name": "LogBindInvalidParameter",
      "type": "event"
    },
    {
      "anonymous": false,
      "inputs": [
        {
          "indexed": false,
          "internalType": "uint256",
          "name": "sequence",
          "type": "uint256"
        },
        {
          "indexed": false,
          "internalType": "address",
          "name": "contractAddr",
          "type": "address"
        },
        {
          "indexed": false,
          "internalType": "bytes32",
          "name": "bep2TokenSymbol",
          "type": "bytes32"
        }
      ],
      "name": "LogBindRejected",
      "type": "event"
    },
    {
      "anonymous": false,
      "inputs": [
        {
          "indexed": false,
          "internalType": "address",
          "name": "contractAddr",
          "type": "address"
        },
        {
          "indexed": false,
          "internalType": "bytes32",
          "name": "bep2TokenSymbol",
          "type": "bytes32"
        },
        {
          "indexed": false,
          "internalType": "uint256",
          "name": "totalSupply",
          "type": "uint256"
        },
        {
          "indexed": false,
          "internalType": "uint256",
          "name": "peggyAmount",
          "type": "uint256"
        }
      ],
      "name": "LogBindRequest",
      "type": "event"
    },
    {
      "anonymous": false,
      "inputs": [
        {
          "indexed": false,
          "internalType": "uint256",
          "name": "sequence",
          "type": "uint256"
        },
        {
          "indexed": false,
          "internalType": "address",
          "name": "contractAddr",
          "type": "address"
        },
        {
          "indexed": false,
          "internalType": "bytes32",
          "name": "bep2TokenSymbol",
          "type": "bytes32"
        },
        {
          "indexed": false,
          "internalType": "uint256",
          "name": "totalSupply",
          "type": "uint256"
        },
        {
          "indexed": false,
          "internalType": "uint256",
          "name": "peggyAmount",
          "type": "uint256"
        },
        {
          "indexed": false,
          "internalType": "uint256",
          "name": "decimals",
          "type": "uint256"
        }
      ],
      "name": "LogBindSuccess",
      "type": "event"
    },
    {
      "anonymous": false,
      "inputs": [
        {
          "indexed": false,
          "internalType": "uint256",
          "name": "sequence",
          "type": "uint256"
        },
        {
          "indexed": false,
          "internalType": "address",
          "name": "contractAddr",
          "type": "address"
        },
        {
          "indexed": false,
          "internalType": "bytes32",
          "name": "bep2TokenSymbol",
          "type": "bytes32"
        }
      ],
      "name": "LogBindTimeout",
      "type": "event"
    },
    {
      "anonymous": false,
      "inputs": [
        {
          "indexed": false,
          "internalType": "address",
          "name": "contractAddr",
          "type": "address"
        },
        {
          "indexed": false,
          "internalType": "address",
          "name": "refundAddr",
          "type": "address"
        },
        {
          "indexed": false,
          "internalType": "uint256",
          "name": "amount",
          "type": "uint256"
        },
        {
          "indexed": false,
          "internalType": "uint16",
          "name": "reason",
          "type": "uint16"
        },
        {
          "indexed": false,
          "internalType": "uint256",
          "name": "actualBalance",
          "type": "uint256"
        }
      ],
      "name": "LogRefundFailureInsufficientBalance",
      "type": "event"
    },
    {
      "anonymous": false,
      "inputs": [
        {
          "indexed": false,
          "internalType": "address",
          "name": "contractAddr",
          "type": "address"
        },
        {
          "indexed": false,
          "internalType": "address",
          "name": "refundAddr",
          "type": "address"
        },
        {
          "indexed": false,
          "internalType": "uint256",
          "name": "amount",
          "type": "uint256"
        },
        {
          "indexed": false,
          "internalType": "uint16",
          "name": "reason",
          "type": "uint16"
        }
      ],
      "name": "LogRefundFailureUnboundToken",
      "type": "event"
    },
    {
      "anonymous": false,
      "inputs": [
        {
          "indexed": false,
          "internalType": "address",
          "name": "contractAddr",
          "type": "address"
        },
        {
          "indexed": false,
          "internalType": "address",
          "name": "refundAddr",
          "type": "address"
        },
        {
          "indexed": false,
          "internalType": "uint256",
          "name": "amount",
          "type": "uint256"
        },
        {
          "indexed": false,
          "internalType": "uint16",
          "name": "reason",
          "type": "uint16"
        }
      ],
      "name": "LogRefundFailureUnknownReason",
      "type": "event"
    },
    {
      "anonymous": false,
      "inputs": [
        {
          "indexed": false,
          "internalType": "address",
          "name": "contractAddr",
          "type": "address"
        },
        {
          "indexed": false,
          "internalType": "address",
          "name": "refundAddr",
          "type": "address"
        },
        {
          "indexed": false,
          "internalType": "uint256",
          "name": "amount",
          "type": "uint256"
        },
        {
          "indexed": false,
          "internalType": "uint16",
          "name": "reason",
          "type": "uint16"
        }
      ],
      "name": "LogRefundSuccess",
      "type": "event"
    },
    {
      "anonymous": false,
      "inputs": [
        {
          "indexed": false,
          "internalType": "uint256",
          "name": "sequence",
          "type": "uint256"
        },
        {
          "indexed": false,
          "internalType": "address",
          "name": "refundAddr",
          "type": "address"
        },
        {
          "indexed": false,
          "internalType": "address",
          "name": "recipient",
          "type": "address"
        },
        {
          "indexed": false,
          "internalType": "uint256",
          "name": "bep2TokenAmount",
          "type": "uint256"
        },
        {
          "indexed": false,
          "internalType": "address",
          "name": "contractAddr",
          "type": "address"
        },
        {
          "indexed": false,
          "internalType": "bytes32",
          "name": "bep2TokenSymbol",
          "type": "bytes32"
        },
        {
          "indexed": false,
          "internalType": "uint256",
          "name": "actualBalance",
          "type": "uint256"
        }
      ],
      "name": "LogTransferInFailureInsufficientBalance",
      "type": "event"
    },
    {
      "anonymous": false,
      "inputs": [
        {
          "indexed": false,
          "internalType": "uint256",
          "name": "sequence",
          "type": "uint256"
        },
        {
          "indexed": false,
          "internalType": "address",
          "name": "refundAddr",
          "type": "address"
        },
        {
          "indexed": false,
          "internalType": "address",
          "name": "recipient",
          "type": "address"
        },
        {
          "indexed": false,
          "internalType": "uint256",
          "name": "bep2TokenAmount",
          "type": "uint256"
        },
        {
          "indexed": false,
          "internalType": "address",
          "name": "contractAddr",
          "type": "address"
        },
        {
          "indexed": false,
          "internalType": "bytes32",
          "name": "bep2TokenSymbol",
          "type": "bytes32"
        },
        {
          "indexed": false,
          "internalType": "uint256",
          "name": "expireTime",
          "type": "uint256"
        }
      ],
      "name": "LogTransferInFailureTimeout",
      "type": "event"
    },
    {
      "anonymous": false,
      "inputs": [
        {
          "indexed": false,
          "internalType": "uint256",
          "name": "sequence",
          "type": "uint256"
        },
        {
          "indexed": false,
          "internalType": "address",
          "name": "refundAddr",
          "type": "address"
        },
        {
          "indexed": false,
          "internalType": "address",
          "name": "recipient",
          "type": "address"
        },
        {
          "indexed": false,
          "internalType": "uint256",
          "name": "bep2TokenAmount",
          "type": "uint256"
        },
        {
          "indexed": false,
          "internalType": "address",
          "name": "contractAddr",
          "type": "address"
        },
        {
          "indexed": false,
          "internalType": "bytes32",
          "name": "bep2TokenSymbol",
          "type": "bytes32"
        }
      ],
      "name": "LogTransferInFailureUnboundToken",
      "type": "event"
    },
    {
      "anonymous": false,
      "inputs": [
        {
          "indexed": false,
          "internalType": "uint256",
          "name": "sequence",
          "type": "uint256"
        },
        {
          "indexed": false,
          "internalType": "address",
          "name": "refundAddr",
          "type": "address"
        },
        {
          "indexed": false,
          "internalType": "address",
          "name": "recipient",
          "type": "address"
        },
        {
          "indexed": false,
          "internalType": "uint256",
          "name": "bep2TokenAmount",
          "type": "uint256"
        },
        {
          "indexed": false,
          "internalType": "address",
          "name": "contractAddr",
          "type": "address"
        },
        {
          "indexed": false,
          "internalType": "bytes32",
          "name": "bep2TokenSymbol",
          "type": "bytes32"
        }
      ],
      "name": "LogTransferInFailureUnknownReason",
      "type": "event"
    },
    {
      "anonymous": false,
      "inputs": [
        {
          "indexed": false,
          "internalType": "uint256",
          "name": "sequence",
          "type": "uint256"
        },
        {
          "indexed": false,
          "internalType": "address",
          "name": "recipient",
          "type": "address"
        },
        {
          "indexed": false,
          "internalType": "uint256",
          "name": "amount",
          "type": "uint256"
        },
        {
          "indexed": false,
          "internalType": "address",
          "name": "contractAddr",
          "type": "address"
        }
      ],
      "name": "LogTransferInSuccess",
      "type": "event"
    },
    {
      "anonymous": false,
      "inputs": [
        {
          "indexed": false,
          "internalType": "uint256",
          "name": "sequence",
          "type": "uint256"
        },
        {
          "indexed": false,
          "internalType": "address",
          "name": "refundAddr",
          "type": "address"
        },
        {
          "indexed": false,
          "internalType": "address",
          "name": "recipient",
          "type": "address"
        },
        {
          "indexed": false,
          "internalType": "uint256",
          "name": "amount",
          "type": "uint256"
        },
        {
          "indexed": false,
          "internalType": "address",
          "name": "contractAddr",
          "type": "address"
        },
        {
          "indexed": false,
          "internalType": "bytes32",
          "name": "bep2TokenSymbol",
          "type": "bytes32"
        },
        {
          "indexed": false,
          "internalType": "uint256",
          "name": "expireTime",
          "type": "uint256"
        },
        {
          "indexed": false,
          "internalType": "uint256",
          "name": "relayFee",
          "type": "uint256"
        }
      ],
      "name": "LogTransferOut",
      "type": "event"
    },
    {
      "anonymous": false,
      "inputs": [
        {
          "indexed": false,
          "internalType": "address",
          "name": "contractAddr",
          "type": "address"
        },
        {
          "indexed": false,
          "internalType": "bytes",
          "name": "lowLevelData",
          "type": "bytes"
        }
      ],
      "name": "LogUnexpectedFailureAssertionInERC20",
      "type": "event"
    },
    {
      "anonymous": false,
      "inputs": [
        {
          "indexed": false,
          "internalType": "address",
          "name": "contractAddr",
          "type": "address"
        },
        {
          "indexed": false,
          "internalType": "string",
          "name": "reason",
          "type": "string"
        }
      ],
      "name": "LogUnexpectedRevertInERC20",
      "type": "event"
    },
    {
      "inputs": [],
      "name": "STORE_NAME",
      "outputs": [
        {
          "internalType": "string",
          "name": "",
          "type": "string"
        }
      ],
      "stateMutability": "view",
      "type": "function"
    },
    {
      "inputs": [
        {
          "internalType": "bytes32",
          "name": "",
          "type": "bytes32"
        }
      ],
      "name": "_bep2SymbolToContractAddr",
      "outputs": [
        {
          "internalType": "address",
          "name": "",
          "type": "address"
        }
      ],
      "stateMutability": "view",
      "type": "function"
    },
    {
      "inputs": [],
      "name": "_bindChannelSequence",
      "outputs": [
        {
          "internalType": "uint64",
          "name": "",
          "type": "uint64"
        }
      ],
      "stateMutability": "view",
      "type": "function"
    },
    {
      "inputs": [
        {
          "internalType": "bytes32",
          "name": "",
          "type": "bytes32"
        }
      ],
      "name": "_bindPackageRecord",
      "outputs": [
        {
          "internalType": "bytes32",
          "name": "bep2TokenSymbol",
          "type": "bytes32"
        },
        {
          "internalType": "address",
          "name": "contractAddr",
          "type": "address"
        },
        {
          "internalType": "uint256",
          "name": "totalSupply",
          "type": "uint256"
        },
        {
          "internalType": "uint256",
          "name": "peggyAmount",
          "type": "uint256"
        },
        {
          "internalType": "uint8",
          "name": "erc20Decimals",
          "type": "uint8"
        },
        {
          "internalType": "uint64",
          "name": "expireTime",
          "type": "uint64"
        },
        {
          "internalType": "uint256",
          "name": "relayFee",
          "type": "uint256"
        }
      ],
      "stateMutability": "view",
      "type": "function"
    },
    {
      "inputs": [],
      "name": "_bindResponseChannelSequence",
      "outputs": [
        {
          "internalType": "uint64",
          "name": "",
          "type": "uint64"
        }
      ],
      "stateMutability": "view",
      "type": "function"
    },
    {
      "inputs": [
        {
          "internalType": "address",
          "name": "",
          "type": "address"
        }
      ],
      "name": "_contractAddrToBEP2Symbol",
      "outputs": [
        {
          "internalType": "bytes32",
          "name": "",
          "type": "bytes32"
        }
      ],
      "stateMutability": "view",
      "type": "function"
    },
    {
      "inputs": [
        {
          "internalType": "address",
          "name": "",
          "type": "address"
        }
      ],
      "name": "_erc20ContractDecimals",
      "outputs": [
        {
          "internalType": "uint256",
          "name": "",
          "type": "uint256"
        }
      ],
      "stateMutability": "view",
      "type": "function"
    },
    {
      "inputs": [],
      "name": "_incentivizeContractForRelayers",
      "outputs": [
        {
          "internalType": "address",
          "name": "",
          "type": "address"
        }
      ],
      "stateMutability": "view",
      "type": "function"
    },
    {
      "inputs": [],
      "name": "_lightClientContract",
      "outputs": [
        {
          "internalType": "address",
          "name": "",
          "type": "address"
        }
      ],
      "stateMutability": "view",
      "type": "function"
    },
    {
      "inputs": [],
      "name": "_maxGasForCallingERC20",
      "outputs": [
        {
          "internalType": "uint256",
          "name": "",
          "type": "uint256"
        }
      ],
      "stateMutability": "view",
      "type": "function"
    },
    {
      "inputs": [],
      "name": "_minimumRelayFee",
      "outputs": [
        {
          "internalType": "uint256",
          "name": "",
          "type": "uint256"
        }
      ],
      "stateMutability": "view",
      "type": "function"
    },
    {
      "inputs": [],
      "name": "_refundChannelSequence",
      "outputs": [
        {
          "internalType": "uint64",
          "name": "",
          "type": "uint64"
        }
      ],
      "stateMutability": "view",
      "type": "function"
    },
    {
      "inputs": [],
      "name": "_refundRelayReward",
      "outputs": [
        {
          "internalType": "uint256",
          "name": "",
          "type": "uint256"
        }
      ],
      "stateMutability": "view",
      "type": "function"
    },
    {
      "inputs": [],
      "name": "_relayerHubContract",
      "outputs": [
        {
          "internalType": "address",
          "name": "",
          "type": "address"
        }
      ],
      "stateMutability": "view",
      "type": "function"
    },
    {
      "inputs": [],
      "name": "_systemRewardContract",
      "outputs": [
        {
          "internalType": "address",
          "name": "",
          "type": "address"
        }
      ],
      "stateMutability": "view",
      "type": "function"
    },
    {
      "inputs": [],
      "name": "_transferInChannelSequence",
      "outputs": [
        {
          "internalType": "uint64",
          "name": "",
          "type": "uint64"
        }
      ],
      "stateMutability": "view",
      "type": "function"
    },
    {
      "inputs": [],
      "name": "_transferInFailureChannelSequence",
      "outputs": [
        {
          "internalType": "uint64",
          "name": "",
          "type": "uint64"
        }
      ],
      "stateMutability": "view",
      "type": "function"
    },
    {
      "inputs": [],
      "name": "_transferOutChannelSequence",
      "outputs": [
        {
          "internalType": "uint64",
          "name": "",
          "type": "uint64"
        }
      ],
      "stateMutability": "view",
      "type": "function"
    },
    {
      "inputs": [],
      "name": "bindChannelID",
      "outputs": [
        {
          "internalType": "uint8",
          "name": "",
          "type": "uint8"
        }
      ],
      "stateMutability": "view",
      "type": "function"
    },
    {
      "inputs": [],
      "name": "maxBep2TotalSupply",
      "outputs": [
        {
          "internalType": "uint256",
          "name": "",
          "type": "uint256"
        }
      ],
      "stateMutability": "view",
      "type": "function"
    },
    {
      "inputs": [],
      "name": "refundChannelID",
      "outputs": [
        {
          "internalType": "uint8",
          "name": "",
          "type": "uint8"
        }
      ],
      "stateMutability": "view",
      "type": "function"
    },
    {
      "inputs": [],
      "name": "transferInChannelID",
      "outputs": [
        {
          "internalType": "uint8",
          "name": "",
          "type": "uint8"
        }
      ],
      "stateMutability": "view",
      "type": "function"
    },
    {
      "inputs": [
        {
          "internalType": "string",
          "name": "symbol",
          "type": "string"
        }
      ],
      "name": "bep2TokenSymbolConvert",
      "outputs": [
        {
          "internalType": "bytes32",
          "name": "",
          "type": "bytes32"
        }
      ],
      "stateMutability": "pure",
      "type": "function"
    },
    {
      "inputs": [
        {
          "internalType": "bytes",
          "name": "msgBytes",
          "type": "bytes"
        },
        {
          "internalType": "bytes",
          "name": "proof",
          "type": "bytes"
        },
        {
          "internalType": "uint64",
          "name": "height",
          "type": "uint64"
        },
        {
          "internalType": "uint64",
          "name": "packageSequence",
          "type": "uint64"
        }
      ],
      "name": "handleBindPackage",
      "outputs": [
        {
          "internalType": "bool",
          "name": "",
          "type": "bool"
        }
      ],
      "stateMutability": "nonpayable",
      "type": "function"
    },
    {
      "inputs": [
        {
          "internalType": "string",
          "name": "erc20Symbol",
          "type": "string"
        },
        {
          "internalType": "bytes32",
          "name": "bep2TokenSymbol",
          "type": "bytes32"
        }
      ],
      "name": "checkSymbol",
      "outputs": [
        {
          "internalType": "bool",
          "name": "",
          "type": "bool"
        }
      ],
      "stateMutability": "pure",
      "type": "function"
    },
    {
      "inputs": [
        {
          "internalType": "address",
          "name": "contractAddr",
          "type": "address"
        },
        {
          "internalType": "string",
          "name": "bep2Symbol",
          "type": "string"
        }
      ],
      "name": "approveBind",
      "outputs": [
        {
          "internalType": "bool",
          "name": "",
          "type": "bool"
        }
      ],
      "stateMutability": "nonpayable",
      "type": "function"
    },
    {
      "inputs": [
        {
          "internalType": "address",
          "name": "contractAddr",
          "type": "address"
        },
        {
          "internalType": "string",
          "name": "bep2Symbol",
          "type": "string"
        }
      ],
      "name": "rejectBind",
      "outputs": [
        {
          "internalType": "bool",
          "name": "",
          "type": "bool"
        }
      ],
      "stateMutability": "nonpayable",
      "type": "function"
    },
    {
      "inputs": [
        {
          "internalType": "string",
          "name": "bep2Symbol",
          "type": "string"
        }
      ],
      "name": "expireBind",
      "outputs": [
        {
          "internalType": "bool",
          "name": "",
          "type": "bool"
        }
      ],
      "stateMutability": "nonpayable",
      "type": "function"
    },
    {
      "inputs": [
        {
          "internalType": "bytes",
          "name": "msgBytes",
          "type": "bytes"
        },
        {
          "internalType": "bytes",
          "name": "proof",
          "type": "bytes"
        },
        {
          "internalType": "uint64",
          "name": "height",
          "type": "uint64"
        },
        {
          "internalType": "uint64",
          "name": "packageSequence",
          "type": "uint64"
        }
      ],
      "name": "handleTransferInPackage",
      "outputs": [
        {
          "internalType": "bool",
          "name": "",
          "type": "bool"
        }
      ],
      "stateMutability": "nonpayable",
      "type": "function"
    },
    {
      "inputs": [
        {
          "internalType": "bytes",
          "name": "msgBytes",
          "type": "bytes"
        },
        {
          "internalType": "bytes",
          "name": "proof",
          "type": "bytes"
        },
        {
          "internalType": "uint64",
          "name": "height",
          "type": "uint64"
        },
        {
          "internalType": "uint64",
          "name": "packageSequence",
          "type": "uint64"
        }
      ],
      "name": "handleRefundPackage",
      "outputs": [
        {
          "internalType": "bool",
          "name": "",
          "type": "bool"
        }
      ],
      "stateMutability": "nonpayable",
      "type": "function"
    },
    {
      "inputs": [
        {
          "internalType": "address",
          "name": "contractAddr",
          "type": "address"
        },
        {
          "internalType": "address",
          "name": "recipient",
          "type": "address"
        },
        {
          "internalType": "uint256",
          "name": "amount",
          "type": "uint256"
        },
        {
          "internalType": "uint256",
          "name": "expireTime",
          "type": "uint256"
        },
        {
          "internalType": "uint256",
          "name": "relayFee",
          "type": "uint256"
        }
      ],
      "name": "transferOut",
      "outputs": [
        {
          "internalType": "bool",
          "name": "",
          "type": "bool"
        }
      ],
      "stateMutability": "payable",
      "type": "function"
    },
    {
      "inputs": [
        {
          "internalType": "address[]",
          "name": "recipientAddrs",
          "type": "address[]"
        },
        {
          "internalType": "uint256[]",
          "name": "amounts",
          "type": "uint256[]"
        },
        {
          "internalType": "address[]",
          "name": "refundAddrs",
          "type": "address[]"
        },
        {
          "internalType": "address",
          "name": "contractAddr",
          "type": "address"
        },
        {
          "internalType": "uint256",
          "name": "expireTime",
          "type": "uint256"
        },
        {
          "internalType": "uint256",
          "name": "relayFee",
          "type": "uint256"
        }
      ],
      "name": "batchTransferOut",
      "outputs": [
        {
          "internalType": "bool",
          "name": "",
          "type": "bool"
        }
      ],
      "stateMutability": "payable",
      "type": "function"
    }
  ],
  "bytecode": "0x60806040526000600460006101000a81548167ffffffffffffffff021916908367ffffffffffffffff1602179055506000600460086101000a81548167ffffffffffffffff021916908367ffffffffffffffff1602179055506000600460106101000a81548167ffffffffffffffff021916908367ffffffffffffffff1602179055506000600460186101000a81548167ffffffffffffffff021916908367ffffffffffffffff1602179055506000600560006101000a81548167ffffffffffffffff021916908367ffffffffffffffff1602179055506000600560086101000a81548167ffffffffffffffff021916908367ffffffffffffffff1602179055503480156200010d57600080fd5b506186f6806200011e6000396000f3fe6080604052600436106101e35760003560e01c80639bb3357a11610102578063d76a867511610095578063df01411911610064578063df01411914610fb5578063e106363514611074578063f5d3151914611150578063fc73c8b51461123a576101e3565b8063d76a867514610e50578063d891ccb214610ee0578063dac3f64f14610f1f578063dcb2af4b14610f5e576101e3565b8063bd038949116100d1578063bd03894914610c31578063ccb27f6a14610c70578063d2d3160b14610d8b578063d43b8c5b14610db6576101e3565b80639bb3357a14610b3f578063a79d273914610ba4578063aaef1ead14610bd5578063bc9f983014610c06576101e3565b80635e011ec01161017a57806372c4e0861161014957806372c4e086146107df57806377d9dae8146108bf578063964c0dcd146109bf5780639710e7f614610ada576101e3565b80635e011ec0146105fa57806366be7945146106255780636b3f1307146106a0578063716c9dd5146107a0576101e3565b80632eb881b0116101b65780632eb881b0146104365780634e4a70e614610551578063544485cf146105905780635da9b1f2146105bb576101e3565b8063053799cf146101e85780631dcb216b1461035757806322d13e8d1461038857806326d68c5f146103df575b600080fd5b61033d600480360360c08110156101fe57600080fd5b810190808035906020019064010000000081111561021b57600080fd5b82018360208201111561022d57600080fd5b8035906020019184602083028401116401000000008311171561024f57600080fd5b90919293919293908035906020019064010000000081111561027057600080fd5b82018360208201111561028257600080fd5b803590602001918460208302840111640100000000831117156102a457600080fd5b9091929391929390803590602001906401000000008111156102c557600080fd5b8201836020820111156102d757600080fd5b803590602001918460208302840111640100000000831117156102f957600080fd5b9091929391929390803573ffffffffffffffffffffffffffffffffffffffff1690602001909291908035906020019092919080359060200190929190505050611291565b604051808215151515815260200191505060405180910390f35b34801561036357600080fd5b5061036c611c78565b604051808260ff1660ff16815260200191505060405180910390f35b34801561039457600080fd5b5061039d611c7d565b604051808273ffffffffffffffffffffffffffffffffffffffff1673ffffffffffffffffffffffffffffffffffffffff16815260200191505060405180910390f35b3480156103eb57600080fd5b506103f4611c83565b604051808273ffffffffffffffffffffffffffffffffffffffff1673ffffffffffffffffffffffffffffffffffffffff16815260200191505060405180910390f35b34801561044257600080fd5b506105376004803603608081101561045957600080fd5b810190808035906020019064010000000081111561047657600080fd5b82018360208201111561048857600080fd5b803590602001918460018302840111640100000000831117156104aa57600080fd5b9091929391929390803590602001906401000000008111156104cb57600080fd5b8201836020820111156104dd57600080fd5b803590602001918460018302840111640100000000831117156104ff57600080fd5b9091929391929390803567ffffffffffffffff169060200190929190803567ffffffffffffffff169060200190929190505050611c89565b604051808215151515815260200191505060405180910390f35b34801561055d57600080fd5b506105666126d7565b604051808267ffffffffffffffff1667ffffffffffffffff16815260200191505060405180910390f35b34801561059c57600080fd5b506105a56126f1565b6040518082815260200191505060405180910390f35b3480156105c757600080fd5b506105d06126fc565b604051808267ffffffffffffffff1667ffffffffffffffff16815260200191505060405180910390f35b34801561060657600080fd5b5061060f612716565b6040518082815260200191505060405180910390f35b34801561063157600080fd5b5061065e6004803603602081101561064857600080fd5b8101908080359060200190929190505050612722565b604051808273ffffffffffffffffffffffffffffffffffffffff1673ffffffffffffffffffffffffffffffffffffffff16815260200191505060405180910390f35b3480156106ac57600080fd5b50610786600480360360408110156106c357600080fd5b81019080803573ffffffffffffffffffffffffffffffffffffffff1690602001909291908035906020019064010000000081111561070057600080fd5b82018360208201111561071257600080fd5b8035906020019184600183028401116401000000008311171561073457600080fd5b91908080601f016020809104026020016040519081016040528093929190818152602001838380828437600081840152601f19601f820116905080830192505050505050509192919290505050612755565b604051808215151515815260200191505060405180910390f35b3480156107ac57600080fd5b506107b56134bd565b604051808267ffffffffffffffff1667ffffffffffffffff16815260200191505060405180910390f35b3480156107eb57600080fd5b506108a56004803603602081101561080257600080fd5b810190808035906020019064010000000081111561081f57600080fd5b82018360208201111561083157600080fd5b8035906020019184600183028401116401000000008311171561085357600080fd5b91908080601f016020809104026020016040519081016040528093929190818152602001838380828437600081840152601f19601f8201169050808301925050505050505091929192905050506134d7565b604051808215151515815260200191505060405180910390f35b3480156108cb57600080fd5b506109a5600480360360408110156108e257600080fd5b81019080803573ffffffffffffffffffffffffffffffffffffffff1690602001909291908035906020019064010000000081111561091f57600080fd5b82018360208201111561093157600080fd5b8035906020019184600183028401116401000000008311171561095357600080fd5b91908080601f016020809104026020016040519081016040528093929190818152602001838380828437600081840152601f19601f8201169050808301925050505050505091929192905050506137bc565b604051808215151515815260200191505060405180910390f35b3480156109cb57600080fd5b50610ac0600480360360808110156109e257600080fd5b81019080803590602001906401000000008111156109ff57600080fd5b820183602082011115610a1157600080fd5b80359060200191846001830284011164010000000083111715610a3357600080fd5b909192939192939080359060200190640100000000811115610a5457600080fd5b820183602082011115610a6657600080fd5b80359060200191846001830284011164010000000083111715610a8857600080fd5b9091929391929390803567ffffffffffffffff169060200190929190803567ffffffffffffffff169060200190929190505050613bc8565b604051808215151515815260200191505060405180910390f35b348015610ae657600080fd5b50610b2960048036036020811015610afd57600080fd5b81019080803573ffffffffffffffffffffffffffffffffffffffff169060200190929190505050615c70565b6040518082815260200191505060405180910390f35b348015610b4b57600080fd5b50610b8e60048036036020811015610b6257600080fd5b81019080803573ffffffffffffffffffffffffffffffffffffffff169060200190929190505050615c88565b6040518082815260200191505060405180910390f35b348015610bb057600080fd5b50610bb9615ca0565b604051808260ff1660ff16815260200191505060405180910390f35b348015610be157600080fd5b50610bea615ca5565b604051808260ff1660ff16815260200191505060405180910390f35b348015610c1257600080fd5b50610c1b615caa565b6040518082815260200191505060405180910390f35b348015610c3d57600080fd5b50610c46615cb0565b604051808267ffffffffffffffff1667ffffffffffffffff16815260200191505060405180910390f35b348015610c7c57600080fd5b50610d7160048036036080811015610c9357600080fd5b8101908080359060200190640100000000811115610cb057600080fd5b820183602082011115610cc257600080fd5b80359060200191846001830284011164010000000083111715610ce457600080fd5b909192939192939080359060200190640100000000811115610d0557600080fd5b820183602082011115610d1757600080fd5b80359060200191846001830284011164010000000083111715610d3957600080fd5b9091929391929390803567ffffffffffffffff169060200190929190803567ffffffffffffffff169060200190929190505050615cca565b604051808215151515815260200191505060405180910390f35b348015610d9757600080fd5b50610da06175ea565b6040518082815260200191505060405180910390f35b610e36600480360360a0811015610dcc57600080fd5b81019080803573ffffffffffffffffffffffffffffffffffffffff169060200190929190803573ffffffffffffffffffffffffffffffffffffffff1690602001909291908035906020019092919080359060200190929190803590602001909291905050506175f5565b604051808215151515815260200191505060405180910390f35b348015610e5c57600080fd5b50610e65617caf565b6040518080602001828103825283818151815260200191508051906020019080838360005b83811015610ea5578082015181840152602081019050610e8a565b50505050905090810190601f168015610ed25780820380516001836020036101000a031916815260200191505b509250505060405180910390f35b348015610eec57600080fd5b50610ef5617ce8565b604051808267ffffffffffffffff1667ffffffffffffffff16815260200191505060405180910390f35b348015610f2b57600080fd5b50610f34617d02565b604051808267ffffffffffffffff1667ffffffffffffffff16815260200191505060405180910390f35b348015610f6a57600080fd5b50610f73617d1c565b604051808273ffffffffffffffffffffffffffffffffffffffff1673ffffffffffffffffffffffffffffffffffffffff16815260200191505060405180910390f35b348015610fc157600080fd5b50610fee60048036036020811015610fd857600080fd5b8101908080359060200190929190505050617d22565b604051808881526020018773ffffffffffffffffffffffffffffffffffffffff1673ffffffffffffffffffffffffffffffffffffffff1681526020018681526020018581526020018460ff1660ff1681526020018367ffffffffffffffff1667ffffffffffffffff16815260200182815260200197505050505050505060405180910390f35b34801561108057600080fd5b5061113a6004803603602081101561109757600080fd5b81019080803590602001906401000000008111156110b457600080fd5b8201836020820111156110c657600080fd5b803590602001918460018302840111640100000000831117156110e857600080fd5b91908080601f016020809104026020016040519081016040528093929190818152602001838380828437600081840152601f19601f820116905080830192505050505050509192919290505050617da5565b6040518082815260200191505060405180910390f35b34801561115c57600080fd5b506112206004803603604081101561117357600080fd5b810190808035906020019064010000000081111561119057600080fd5b8201836020820111156111a257600080fd5b803590602001918460018302840111640100000000831117156111c457600080fd5b91908080601f016020809104026020016040519081016040528093929190818152602001838380828437600081840152601f19601f82011690508083019250505050505050919291929080359060200190929190505050617db8565b604051808215151515815260200191505060405180910390f35b34801561124657600080fd5b5061124f617f75565b604051808273ffffffffffffffffffffffffffffffffffffffff1673ffffffffffffffffffffffffffffffffffffffff16815260200191505060405180910390f35b6000878790508a8a9050146112f1576040517f08c379a000000000000000000000000000000000000000000000000000000000815260040180806020018281038252603b815260200180618659603b913960400191505060405180910390fd5b858590508a8a90501461134f576040517f08c379a000000000000000000000000000000000000000000000000000000000815260040180806020018281038252603f81526020018061854a603f913960400191505060405180910390fd5b662386f26fc1000088889050838161136357fe5b0410156113d8576040517f08c379a00000000000000000000000000000000000000000000000000000000081526004018080602001828103825260168152602001807f72656c617946656520697320746f6f206c6974746c650000000000000000000081525060200191505060405180910390fd5b60006402540be40083816113e857fe5b061461145c576040517f08c379a00000000000000000000000000000000000000000000000000000000081526004018080602001828103825260188152602001807f72656c6179466565206d757374206265204e2a31305e3130000000000000000081525060200191505060405180910390fd5b607842018310156114b8576040517f08c379a00000000000000000000000000000000000000000000000000000000081526004018080602001828103825260248152602001806184726024913960400191505060405180910390fd5b600080905060008090505b898990508110156114f2578989828181106114da57fe5b905060200201358201915080806001019150506114c3565b506060898990506040519080825280602002602001820160405280156115275781602001602082028036833780820191505090505b50905060008073ffffffffffffffffffffffffffffffffffffffff168773ffffffffffffffffffffffffffffffffffffffff1614156116df5760008090505b8b8b90508160ff1610156116595760006402540be4008d8d8460ff1681811061158b57fe5b905060200201358161159957fe5b061461160d576040517f08c379a00000000000000000000000000000000000000000000000000000000081526004018080602001828103825260178152602001807f696e76616c6964207472616e7366657220616d6f756e7400000000000000000081525060200191505060405180910390fd5b6402540be4008c8c8360ff1681811061162257fe5b905060200201358161163057fe5b04838260ff168151811061164057fe5b6020026020010181815250508080600101915050611566565b5084830134146116b4576040517f08c379a000000000000000000000000000000000000000000000000000000000815260040180806020018281038252604c8152602001806184fe604c913960600191505060405180910390fd5b7f424e42000000000000000000000000000000000000000000000000000000000060001b9050611a77565b6000600260008973ffffffffffffffffffffffffffffffffffffffff1673ffffffffffffffffffffffffffffffffffffffff16815260200190815260200160002054905060008090505b8c8c905081101561187f57600082600a0a6305f5e1008f8f8581811061174b57fe5b90506020020135028161175a57fe5b06146117ce576040517f08c379a00000000000000000000000000000000000000000000000000000000081526004018080602001828103825260178152602001807f696e76616c6964207472616e7366657220616d6f756e7400000000000000000081525060200191505060405180910390fd5b600082600a0a6305f5e1008f8f858181106117e557fe5b9050602002013502816117f457fe5b049050677ce66c50e2840000811115611858576040517f08c379a00000000000000000000000000000000000000000000000000000000081526004018080602001828103825260238152602001806184966023913960400191505060405180910390fd5b8085838151811061186557fe5b602002602001018181525050508080600101915050611729565b50600160008973ffffffffffffffffffffffffffffffffffffffff1673ffffffffffffffffffffffffffffffffffffffff1681526020019081526020016000205491506000801b82141561191e576040517f08c379a00000000000000000000000000000000000000000000000000000000081526004018080602001828103825260308152602001806185896030913960400191505060405180910390fd5b853414611976576040517f08c379a000000000000000000000000000000000000000000000000000000000815260040180806020018281038252602d815260200180618694602d913960400191505060405180910390fd5b8773ffffffffffffffffffffffffffffffffffffffff166323b872dd3330876040518463ffffffff1660e01b8152600401808473ffffffffffffffffffffffffffffffffffffffff1673ffffffffffffffffffffffffffffffffffffffff1681526020018373ffffffffffffffffffffffffffffffffffffffff1673ffffffffffffffffffffffffffffffffffffffff1681526020018281526020019350505050602060405180830381600087803b158015611a3157600080fd5b505af1158015611a45573d6000803e3d6000fd5b505050506040513d6020811015611a5b57600080fd5b8101908080519060200190929190505050611a7557600080fd5b505b7ea18f0343865824d1375c23f5dd79fdf32a12f50400ef2591e52276f8378e31600460189054906101000a900467ffffffffffffffff168389848a6402540be4008b81611ac057fe5b04604051808767ffffffffffffffff168152602001806020018673ffffffffffffffffffffffffffffffffffffffff1673ffffffffffffffffffffffffffffffffffffffff168152602001858152602001848152602001838152602001828103825287818151815260200191508051906020019060200280838360005b83811015611b58578082015181840152602081019050611b3d565b5050505090500197505050505050505060405180910390a17f8740bbd4e1a2505bf2908481adbf1056fb52f762152b702f6c65468f63c55cf86004601881819054906101000a900467ffffffffffffffff168092919060010191906101000a81548167ffffffffffffffff021916908367ffffffffffffffff1602179055508e8e8c8c604051808667ffffffffffffffff16815260200180602001806020018381038352878782818152602001925060200280828437600081840152601f19601f8201169050808301925050508381038252858582818152602001925060200280828437600081840152601f19601f82011690508083019250505097505050505050505060405180910390a1600193505050509998505050505050505050565b600181565b61100581565b61100381565b60008261100373ffffffffffffffffffffffffffffffffffffffff1663df5fe704826040518263ffffffff1660e01b8152600401808267ffffffffffffffff1667ffffffffffffffff16815260200191505060206040518083038186803b158015611cf357600080fd5b505afa158015611d07573d6000803e3d6000fd5b505050506040513d6020811015611d1d57600080fd5b8101908080519060200190929190505050611da0576040517f08c379a000000000000000000000000000000000000000000000000000000000815260040180806020018281038252601e8152602001807f7265666572656e636520686561646572206973206e6f742073796e636564000081525060200191505060405180910390fd5b61100673ffffffffffffffffffffffffffffffffffffffff1663541d5548336040518263ffffffff1660e01b8152600401808273ffffffffffffffffffffffffffffffffffffffff1673ffffffffffffffffffffffffffffffffffffffff16815260200191505060206040518083038186803b158015611e1f57600080fd5b505afa158015611e33573d6000803e3d6000fd5b505050506040513d6020811015611e4957600080fd5b8101908080519060200190929190505050611ecc576040517f08c379a000000000000000000000000000000000000000000000000000000000815260040180806020018281038252601f8152602001807f746865206d73672073656e646572206973206e6f7420612072656c617965720081525060200191505060405180910390fd5b600460009054906101000a900467ffffffffffffffff1667ffffffffffffffff168367ffffffffffffffff1614611f6b576040517f08c379a00000000000000000000000000000000000000000000000000000000081526004018080602001828103825260138152602001807f77726f6e672062696e642073657175656e63650000000000000000000000000081525060200191505060405180910390fd5b609d8888905014611fe4576040517f08c379a00000000000000000000000000000000000000000000000000000000081526004018080602001828103825260178152602001807f77726f6e672062696e64207061636b6167652073697a6500000000000000000081525060200191505060405180910390fd5b600061100373ffffffffffffffffffffffffffffffffffffffff1663cba510a9866040518263ffffffff1660e01b8152600401808267ffffffffffffffff1667ffffffffffffffff16815260200191505060206040518083038186803b15801561204d57600080fd5b505afa158015612061573d6000803e3d6000fd5b505050506040513d602081101561207757600080fd5b8101908080519060200190929190505050905073__MerkleProof___________________________638c60e815826040518060400160405280600381526020017f69626300000000000000000000000000000000000000000000000000000000008152506121066001600460009054906101000a900467ffffffffffffffff1667ffffffffffffffff16617f7b565b8d8d8d8d6040518863ffffffff1660e01b8152600401808881526020018060200180602001806020018060200185810385528b818151815260200191508051906020019080838360005b8381101561216b578082015181840152602081019050612150565b50505050905090810190601f1680156121985780820380516001836020036101000a031916815260200191505b5085810384528a818151815260200191508051906020019080838360005b838110156121d15780820151818401526020810190506121b6565b50505050905090810190601f1680156121fe5780820380516001836020036101000a031916815260200191505b508581038352898982818152602001925080828437600081840152601f19601f8201169050808301925050508581038252878782818152602001925080828437600081840152601f19601f8201169050808301925050509b50505050505050505050505060206040518083038186803b15801561227a57600080fd5b505af415801561228e573d6000803e3d6000fd5b505050506040513d60208110156122a457600080fd5b8101908080519060200190929190505050612327576040517f08c379a00000000000000000000000000000000000000000000000000000000081526004018080602001828103825260148152602001807f696e76616c6964206d65726b6c652070726f6f6600000000000000000000000081525060200191505060405180910390fd5b6004600081819054906101000a900467ffffffffffffffff168092919060010191906101000a81548167ffffffffffffffff021916908367ffffffffffffffff16021790555050600061100373ffffffffffffffffffffffffffffffffffffffff1663dda83148876040518263ffffffff1660e01b8152600401808267ffffffffffffffff1667ffffffffffffffff16815260200191505060206040518083038186803b1580156123d757600080fd5b505afa1580156123eb573d6000803e3d6000fd5b505050506040513d602081101561240157600080fd5b8101908080519060200190929190505050905061241c61832a565b6124698b8b8080601f016020809104026020016040519081016040528093929190818152602001838380828437600081840152601f19601f82011690508083019250505050505050617fea565b905061100573ffffffffffffffffffffffffffffffffffffffff166340b47e1a8260c0015184336040518463ffffffff1660e01b8152600401808373ffffffffffffffffffffffffffffffffffffffff1673ffffffffffffffffffffffffffffffffffffffff1681526020018273ffffffffffffffffffffffffffffffffffffffff1673ffffffffffffffffffffffffffffffffffffffff168152602001925050506020604051808303818588803b15801561252457600080fd5b505af1158015612538573d6000803e3d6000fd5b50505050506040513d602081101561254f57600080fd5b81019080805190602001909291905050505080600080836000015181526020019081526020016000206000820151816000015560208201518160010160006101000a81548173ffffffffffffffffffffffffffffffffffffffff021916908373ffffffffffffffffffffffffffffffffffffffff160217905550604082015181600201556060820151816003015560808201518160040160006101000a81548160ff021916908360ff16021790555060a08201518160040160016101000a81548167ffffffffffffffff021916908367ffffffffffffffff16021790555060c082015181600501559050507ff8608cf3c27350e6aa0beaa6723ea6911e3d7353e8b22a69bb112c15f93867ca8160200151826000015183604001518460600151604051808573ffffffffffffffffffffffffffffffffffffffff1673ffffffffffffffffffffffffffffffffffffffff16815260200184815260200183815260200182815260200194505050505060405180910390a160019450505050509695505050505050565b600460109054906101000a900467ffffffffffffffff1681565b662386f26fc1000081565b600560089054906101000a900467ffffffffffffffff1681565b677ce66c50e284000081565b60036020528060005260406000206000915054906101000a900473ffffffffffffffffffffffffffffffffffffffff1681565b60008061276183617da5565b905061276b61832a565b6000808381526020019081526020016000206040518060e0016040529081600082015481526020016001820160009054906101000a900473ffffffffffffffffffffffffffffffffffffffff1673ffffffffffffffffffffffffffffffffffffffff1673ffffffffffffffffffffffffffffffffffffffff16815260200160028201548152602001600382015481526020016004820160009054906101000a900460ff1660ff1660ff1681526020016004820160019054906101000a900467ffffffffffffffff1667ffffffffffffffff1667ffffffffffffffff1681526020016005820154815250509050600081606001518260400151039050816020015173ffffffffffffffffffffffffffffffffffffffff168673ffffffffffffffffffffffffffffffffffffffff16146128ee576040517f08c379a00000000000000000000000000000000000000000000000000000000081526004018080602001828103825260458152602001806184b96045913960600191505060405180910390fd5b3373ffffffffffffffffffffffffffffffffffffffff168673ffffffffffffffffffffffffffffffffffffffff1663893d20e86040518163ffffffff1660e01b815260040160206040518083038186803b15801561294b57600080fd5b505afa15801561295f573d6000803e3d6000fd5b505050506040513d602081101561297557600080fd5b810190808051906020019092919050505073ffffffffffffffffffffffffffffffffffffffff16146129f2576040517f08c379a000000000000000000000000000000000000000000000000000000000815260040180806020018281038252602e8152602001806185f5602e913960400191505060405180910390fd5b808673ffffffffffffffffffffffffffffffffffffffff1663dd62ed3e33306040518363ffffffff1660e01b8152600401808373ffffffffffffffffffffffffffffffffffffffff1673ffffffffffffffffffffffffffffffffffffffff1681526020018273ffffffffffffffffffffffffffffffffffffffff1673ffffffffffffffffffffffffffffffffffffffff1681526020019250505060206040518083038186803b158015612aa457600080fd5b505afa158015612ab8573d6000803e3d6000fd5b505050506040513d6020811015612ace57600080fd5b810190808051906020019092919050505014612b35576040517f08c379a00000000000000000000000000000000000000000000000000000000081526004018080602001828103825260368152602001806186236036913960400191505060405180910390fd5b428260a0015167ffffffffffffffff161015612cac577f4781c2d0a33124fb32083581f5b48c93a59b71fd567ce2d4a56c89196baa2ccd6005600081819054906101000a900467ffffffffffffffff168092919060010191906101000a81548167ffffffffffffffff021916908367ffffffffffffffff16021790555083602001518460000151604051808467ffffffffffffffff1681526020018373ffffffffffffffffffffffffffffffffffffffff1673ffffffffffffffffffffffffffffffffffffffff168152602001828152602001935050505060405180910390a16000808481526020019081526020016000206000808201600090556001820160006101000a81549073ffffffffffffffffffffffffffffffffffffffff0219169055600282016000905560038201600090556004820160006101000a81549060ff02191690556004820160016101000a81549067ffffffffffffffff021916905560058201600090555050600093505050506134b7565b60008673ffffffffffffffffffffffffffffffffffffffff1663313ce5676040518163ffffffff1660e01b815260040160206040518083038186803b158015612cf457600080fd5b505afa158015612d08573d6000803e3d6000fd5b505050506040513d6020811015612d1e57600080fd5b8101908080519060200190929190505050905060608773ffffffffffffffffffffffffffffffffffffffff166395d89b416040518163ffffffff1660e01b815260040160006040518083038186803b158015612d7957600080fd5b505afa158015612d8d573d6000803e3d6000fd5b505050506040513d6000823e3d601f19601f820116820180604052506020811015612db757600080fd5b8101908080516040519392919084640100000000821115612dd757600080fd5b83820191506020820185811115612ded57600080fd5b8251866001820283011164010000000082111715612e0a57600080fd5b8083526020830192505050908051906020019080838360005b83811015612e3e578082015181840152602081019050612e23565b50505050905090810190601f168015612e6b5780820380516001836020036101000a031916815260200191505b506040525050509050612e7e8186617db8565b1580612eee5750600073ffffffffffffffffffffffffffffffffffffffff16600360008660000151815260200190815260200160002060009054906101000a900473ffffffffffffffffffffffffffffffffffffffff1673ffffffffffffffffffffffffffffffffffffffff1614155b80612f3f57506000801b60016000866020015173ffffffffffffffffffffffffffffffffffffffff1673ffffffffffffffffffffffffffffffffffffffff1681526020019081526020016000205414155b80612fd257508360400151846020015173ffffffffffffffffffffffffffffffffffffffff166318160ddd6040518163ffffffff1660e01b815260040160206040518083038186803b158015612f9457600080fd5b505afa158015612fa8573d6000803e3d6000fd5b505050506040513d6020811015612fbe57600080fd5b810190808051906020019092919050505014155b80612fe45750836080015160ff168214155b1561314c576000808681526020019081526020016000206000808201600090556001820160006101000a81549073ffffffffffffffffffffffffffffffffffffffff0219169055600282016000905560038201600090556004820160006101000a81549060ff02191690556004820160016101000a81549067ffffffffffffffff0219169055600582016000905550507f2117f993c9cc877c531b4e6bd55d822cb48b529fd003c80e5bd6c27b7c1c17026005600081819054906101000a900467ffffffffffffffff168092919060010191906101000a81548167ffffffffffffffff021916908367ffffffffffffffff16021790555085602001518660000151604051808467ffffffffffffffff1681526020018373ffffffffffffffffffffffffffffffffffffffff1673ffffffffffffffffffffffffffffffffffffffff168152602001828152602001935050505060405180910390a16000955050505050506134b7565b8773ffffffffffffffffffffffffffffffffffffffff166323b872dd3330866040518463ffffffff1660e01b8152600401808473ffffffffffffffffffffffffffffffffffffffff1673ffffffffffffffffffffffffffffffffffffffff1681526020018373ffffffffffffffffffffffffffffffffffffffff1673ffffffffffffffffffffffffffffffffffffffff1681526020018281526020019350505050602060405180830381600087803b15801561320757600080fd5b505af115801561321b573d6000803e3d6000fd5b505050506040513d602081101561323157600080fd5b810190808051906020019092919050505050836000015160016000866020015173ffffffffffffffffffffffffffffffffffffffff1673ffffffffffffffffffffffffffffffffffffffff16815260200190815260200160002081905550836080015160ff1660026000866020015173ffffffffffffffffffffffffffffffffffffffff1673ffffffffffffffffffffffffffffffffffffffff168152602001908152602001600020819055508360200151600360008660000151815260200190815260200160002060006101000a81548173ffffffffffffffffffffffffffffffffffffffff021916908373ffffffffffffffffffffffffffffffffffffffff1602179055506000808681526020019081526020016000206000808201600090556001820160006101000a81549073ffffffffffffffffffffffffffffffffffffffff0219169055600282016000905560038201600090556004820160006101000a81549060ff02191690556004820160016101000a81549067ffffffffffffffff0219169055600582016000905550507f8005b9354dd0ca4c5593805bcd00ea12b5fce8a2cc9bc15252f50fb2d17c09d26005600081819054906101000a900467ffffffffffffffff168092919060010191906101000a81548167ffffffffffffffff021916908367ffffffffffffffff160217905550856020015186600001518760400151886060015187604051808767ffffffffffffffff1681526020018673ffffffffffffffffffffffffffffffffffffffff1673ffffffffffffffffffffffffffffffffffffffff168152602001858152602001848152602001838152602001828152602001965050505050505060405180910390a16001955050505050505b92915050565b600560009054906101000a900467ffffffffffffffff1681565b6000806134e383617da5565b90506134ed61832a565b6000808381526020019081526020016000206040518060e0016040529081600082015481526020016001820160009054906101000a900473ffffffffffffffffffffffffffffffffffffffff1673ffffffffffffffffffffffffffffffffffffffff1673ffffffffffffffffffffffffffffffffffffffff16815260200160028201548152602001600382015481526020016004820160009054906101000a900460ff1660ff1660ff1681526020016004820160019054906101000a900467ffffffffffffffff1667ffffffffffffffff1667ffffffffffffffff1681526020016005820154815250509050428160a0015167ffffffffffffffff161061365c576040517f08c379a000000000000000000000000000000000000000000000000000000000815260040180806020018281038252601b8152602001807f62696e642072657175657374206973206e6f742065787069726564000000000081525060200191505060405180910390fd5b6000808381526020019081526020016000206000808201600090556001820160006101000a81549073ffffffffffffffffffffffffffffffffffffffff0219169055600282016000905560038201600090556004820160006101000a81549060ff02191690556004820160016101000a81549067ffffffffffffffff0219169055600582016000905550507f4781c2d0a33124fb32083581f5b48c93a59b71fd567ce2d4a56c89196baa2ccd6005600081819054906101000a900467ffffffffffffffff168092919060010191906101000a81548167ffffffffffffffff021916908367ffffffffffffffff16021790555082602001518360000151604051808467ffffffffffffffff1681526020018373ffffffffffffffffffffffffffffffffffffffff1673ffffffffffffffffffffffffffffffffffffffff168152602001828152602001935050505060405180910390a1600192505050919050565b6000806137c883617da5565b90506137d261832a565b6000808381526020019081526020016000206040518060e0016040529081600082015481526020016001820160009054906101000a900473ffffffffffffffffffffffffffffffffffffffff1673ffffffffffffffffffffffffffffffffffffffff1673ffffffffffffffffffffffffffffffffffffffff16815260200160028201548152602001600382015481526020016004820160009054906101000a900460ff1660ff1660ff1681526020016004820160019054906101000a900467ffffffffffffffff1667ffffffffffffffff1667ffffffffffffffff1681526020016005820154815250509050806020015173ffffffffffffffffffffffffffffffffffffffff168573ffffffffffffffffffffffffffffffffffffffff1614613946576040517f08c379a00000000000000000000000000000000000000000000000000000000081526004018080602001828103825260458152602001806184b96045913960600191505060405180910390fd5b3373ffffffffffffffffffffffffffffffffffffffff168573ffffffffffffffffffffffffffffffffffffffff1663893d20e86040518163ffffffff1660e01b815260040160206040518083038186803b1580156139a357600080fd5b505afa1580156139b7573d6000803e3d6000fd5b505050506040513d60208110156139cd57600080fd5b810190808051906020019092919050505073ffffffffffffffffffffffffffffffffffffffff1614613a67576040517f08c379a000000000000000000000000000000000000000000000000000000000815260040180806020018281038252601b8152602001807f6f6e6c79206572633230206f776e65722063616e2072656a656374000000000081525060200191505060405180910390fd5b6000808381526020019081526020016000206000808201600090556001820160006101000a81549073ffffffffffffffffffffffffffffffffffffffff0219169055600282016000905560038201600090556004820160006101000a81549060ff02191690556004820160016101000a81549067ffffffffffffffff0219169055600582016000905550507f341e20b0b6b62cb3990e2d1f8bcb0a15e7d7fd446355a7be807face1622852546005600081819054906101000a900467ffffffffffffffff168092919060010191906101000a81548167ffffffffffffffff021916908367ffffffffffffffff16021790555082602001518360000151604051808467ffffffffffffffff1681526020018373ffffffffffffffffffffffffffffffffffffffff1673ffffffffffffffffffffffffffffffffffffffff168152602001828152602001935050505060405180910390a160019250505092915050565b60008261100373ffffffffffffffffffffffffffffffffffffffff1663df5fe704826040518263ffffffff1660e01b8152600401808267ffffffffffffffff1667ffffffffffffffff16815260200191505060206040518083038186803b158015613c3257600080fd5b505afa158015613c46573d6000803e3d6000fd5b505050506040513d6020811015613c5c57600080fd5b8101908080519060200190929190505050613cdf576040517f08c379a000000000000000000000000000000000000000000000000000000000815260040180806020018281038252601e8152602001807f7265666572656e636520686561646572206973206e6f742073796e636564000081525060200191505060405180910390fd5b61100673ffffffffffffffffffffffffffffffffffffffff1663541d5548336040518263ffffffff1660e01b8152600401808273ffffffffffffffffffffffffffffffffffffffff1673ffffffffffffffffffffffffffffffffffffffff16815260200191505060206040518083038186803b158015613d5e57600080fd5b505afa158015613d72573d6000803e3d6000fd5b505050506040513d6020811015613d8857600080fd5b8101908080519060200190929190505050613e0b576040517f08c379a000000000000000000000000000000000000000000000000000000000815260040180806020018281038252601f8152602001807f746865206d73672073656e646572206973206e6f7420612072656c617965720081525060200191505060405180910390fd5b600460089054906101000a900467ffffffffffffffff1667ffffffffffffffff168367ffffffffffffffff1614613eaa576040517f08c379a00000000000000000000000000000000000000000000000000000000081526004018080602001828103825260178152602001807f77726f6e67207472616e736665722073657175656e636500000000000000000081525060200191505060405180910390fd5b60a48888905014613f23576040517f08c379a000000000000000000000000000000000000000000000000000000000815260040180806020018281038252601b8152602001807f77726f6e67207472616e73666572207061636b6167652073697a65000000000081525060200191505060405180910390fd5b600061100373ffffffffffffffffffffffffffffffffffffffff1663cba510a9866040518263ffffffff1660e01b8152600401808267ffffffffffffffff1667ffffffffffffffff16815260200191505060206040518083038186803b158015613f8c57600080fd5b505afa158015613fa0573d6000803e3d6000fd5b505050506040513d6020811015613fb657600080fd5b8101908080519060200190929190505050905073__MerkleProof___________________________638c60e815826040518060400160405280600381526020017f69626300000000000000000000000000000000000000000000000000000000008152506140456002600460089054906101000a900467ffffffffffffffff1667ffffffffffffffff16617f7b565b8d8d8d8d6040518863ffffffff1660e01b8152600401808881526020018060200180602001806020018060200185810385528b818151815260200191508051906020019080838360005b838110156140aa57808201518184015260208101905061408f565b50505050905090810190601f1680156140d75780820380516001836020036101000a031916815260200191505b5085810384528a818151815260200191508051906020019080838360005b838110156141105780820151818401526020810190506140f5565b50505050905090810190601f16801561413d5780820380516001836020036101000a031916815260200191505b508581038352898982818152602001925080828437600081840152601f19601f8201169050808301925050508581038252878782818152602001925080828437600081840152601f19601f8201169050808301925050509b50505050505050505050505060206040518083038186803b1580156141b957600080fd5b505af41580156141cd573d6000803e3d6000fd5b505050506040513d60208110156141e357600080fd5b8101908080519060200190929190505050614266576040517f08c379a00000000000000000000000000000000000000000000000000000000081526004018080602001828103825260148152602001807f696e76616c6964206d65726b6c652070726f6f6600000000000000000000000081525060200191505060405180910390fd5b6004600881819054906101000a900467ffffffffffffffff168092919060010191906101000a81548167ffffffffffffffff021916908367ffffffffffffffff16021790555050600061100373ffffffffffffffffffffffffffffffffffffffff1663dda83148876040518263ffffffff1660e01b8152600401808267ffffffffffffffff1667ffffffffffffffff16815260200191505060206040518083038186803b15801561431657600080fd5b505afa15801561432a573d6000803e3d6000fd5b505050506040513d602081101561434057600080fd5b8101908080519060200190929190505050905061435b61838d565b6143a88b8b8080601f016020809104026020016040519081016040528093929190818152602001838380828437600081840152601f19601f820116905080830192505050505050506180f0565b905061100573ffffffffffffffffffffffffffffffffffffffff166340b47e1a8260c0015184336040518463ffffffff1660e01b8152600401808373ffffffffffffffffffffffffffffffffffffffff1673ffffffffffffffffffffffffffffffffffffffff1681526020018273ffffffffffffffffffffffffffffffffffffffff1673ffffffffffffffffffffffffffffffffffffffff168152602001925050506020604051808303818588803b15801561446357600080fd5b505af1158015614477573d6000803e3d6000fd5b50505050506040513d602081101561448e57600080fd5b810190808051906020019092919050505050600073ffffffffffffffffffffffffffffffffffffffff16816020015173ffffffffffffffffffffffffffffffffffffffff1614801561450657507f424e42000000000000000000000000000000000000000000000000000000000060001b8160000151145b15614a8e578060a0015167ffffffffffffffff16421115614697577f8090e98e190cb0b05412d5c1a8cd5ee9af5d40da935335cef5d4179c7da63d796005600881819054906101000a900467ffffffffffffffff168092919060010191906101000a81548167ffffffffffffffff021916908367ffffffffffffffff160217905550826040015183606001516402540be4008560800151816145a457fe5b04856020015186600001518760a00151604051808867ffffffffffffffff1681526020018773ffffffffffffffffffffffffffffffffffffffff1673ffffffffffffffffffffffffffffffffffffffff1681526020018673ffffffffffffffffffffffffffffffffffffffff1673ffffffffffffffffffffffffffffffffffffffff1681526020018581526020018473ffffffffffffffffffffffffffffffffffffffff1673ffffffffffffffffffffffffffffffffffffffff1681526020018381526020018267ffffffffffffffff16815260200197505050505050505060405180910390a160009450505050615c65565b806080015147101561480b577f1de400dfa3e72ba83f12c6f1d8b9b85dc3d2aedc6eacc27b481267826aec74226005600881819054906101000a900467ffffffffffffffff168092919060010191906101000a81548167ffffffffffffffff021916908367ffffffffffffffff160217905550826040015183606001516402540be40085608001518161472657fe5b048560200151866000015147604051808867ffffffffffffffff1681526020018773ffffffffffffffffffffffffffffffffffffffff1673ffffffffffffffffffffffffffffffffffffffff1681526020018673ffffffffffffffffffffffffffffffffffffffff1673ffffffffffffffffffffffffffffffffffffffff1681526020018581526020018473ffffffffffffffffffffffffffffffffffffffff1673ffffffffffffffffffffffffffffffffffffffff16815260200183815260200182815260200197505050505050505060405180910390a160009450505050615c65565b806060015173ffffffffffffffffffffffffffffffffffffffff166108fc82608001519081150290604051600060405180830381858888f193505050506149ac577fcb6ddd4a252f58c1ff32f31fbb529dc35e8f6a81908f6211bbe7dfa94ef52f1f6005600881819054906101000a900467ffffffffffffffff168092919060010191906101000a81548167ffffffffffffffff021916908367ffffffffffffffff160217905550826040015183606001516402540be4008560800151816148cf57fe5b0485602001518660000151604051808767ffffffffffffffff1681526020018673ffffffffffffffffffffffffffffffffffffffff1673ffffffffffffffffffffffffffffffffffffffff1681526020018573ffffffffffffffffffffffffffffffffffffffff1673ffffffffffffffffffffffffffffffffffffffff1681526020018481526020018373ffffffffffffffffffffffffffffffffffffffff1673ffffffffffffffffffffffffffffffffffffffff168152602001828152602001965050505050505060405180910390a160009450505050615c65565b7f8b8816b9cf4590950a140d102435e65bcce6ee7c84bb38367dd2bb71b8ae4ad26001600460089054906101000a900467ffffffffffffffff1603826060015183608001518460200151604051808567ffffffffffffffff1681526020018473ffffffffffffffffffffffffffffffffffffffff1673ffffffffffffffffffffffffffffffffffffffff1681526020018381526020018273ffffffffffffffffffffffffffffffffffffffff1673ffffffffffffffffffffffffffffffffffffffff16815260200194505050505060405180910390a160019450505050615c65565b600060026000836020015173ffffffffffffffffffffffffffffffffffffffff1673ffffffffffffffffffffffffffffffffffffffff16815260200190815260200160002054600a0a6305f5e10083608001510281614ae957fe5b049050816000015160016000846020015173ffffffffffffffffffffffffffffffffffffffff1673ffffffffffffffffffffffffffffffffffffffff1681526020019081526020016000205414614c89577f055f2adbd109a4e99b3821af55571cccb4981551d10e3846b21574d348572a596005600881819054906101000a900467ffffffffffffffff168092919060010191906101000a81548167ffffffffffffffff021916908367ffffffffffffffff160217905550836040015184606001518486602001518760000151604051808767ffffffffffffffff1681526020018673ffffffffffffffffffffffffffffffffffffffff1673ffffffffffffffffffffffffffffffffffffffff1681526020018573ffffffffffffffffffffffffffffffffffffffff1673ffffffffffffffffffffffffffffffffffffffff1681526020018481526020018373ffffffffffffffffffffffffffffffffffffffff1673ffffffffffffffffffffffffffffffffffffffff168152602001828152602001965050505050505060405180910390a16000955050505050615c65565b8160a0015167ffffffffffffffff16421115614e04577f8090e98e190cb0b05412d5c1a8cd5ee9af5d40da935335cef5d4179c7da63d796005600881819054906101000a900467ffffffffffffffff168092919060010191906101000a81548167ffffffffffffffff021916908367ffffffffffffffff1602179055508360400151846060015184866020015187600001518860a00151604051808867ffffffffffffffff1681526020018773ffffffffffffffffffffffffffffffffffffffff1673ffffffffffffffffffffffffffffffffffffffff1681526020018673ffffffffffffffffffffffffffffffffffffffff1673ffffffffffffffffffffffffffffffffffffffff1681526020018581526020018473ffffffffffffffffffffffffffffffffffffffff1673ffffffffffffffffffffffffffffffffffffffff1681526020018381526020018267ffffffffffffffff16815260200197505050505050505060405180910390a16000955050505050615c65565b816020015173ffffffffffffffffffffffffffffffffffffffff1663a9059cbb61c350846060015185608001516040518463ffffffff1660e01b8152600401808373ffffffffffffffffffffffffffffffffffffffff1673ffffffffffffffffffffffffffffffffffffffff16815260200182815260200192505050602060405180830381600088803b158015614e9a57600080fd5b5087f193505050508015614ecf57506040513d6020811015614ebb57600080fd5b810190808051906020019092919050505060015b61541d576000604051905060008152600115614f985760443d1015614ef75760009050614f98565b60046000803e60005160e01c6308c379a08114614f18576000915050614f98565b60043d036004833e81513d602482011167ffffffffffffffff82111715614f4457600092505050614f98565b808301805167ffffffffffffffff811115614f66576000945050505050614f98565b8060208301013d8601811115614f8457600095505050505050614f98565b601f19601f82011660405282955050505050505b80614fa357506151c7565b7fcb6ddd4a252f58c1ff32f31fbb529dc35e8f6a81908f6211bbe7dfa94ef52f1f6005600881819054906101000a900467ffffffffffffffff168092919060010191906101000a81548167ffffffffffffffff021916908367ffffffffffffffff160217905550846040015185606001518587602001518860000151604051808767ffffffffffffffff1681526020018673ffffffffffffffffffffffffffffffffffffffff1673ffffffffffffffffffffffffffffffffffffffff1681526020018573ffffffffffffffffffffffffffffffffffffffff1673ffffffffffffffffffffffffffffffffffffffff1681526020018481526020018373ffffffffffffffffffffffffffffffffffffffff1673ffffffffffffffffffffffffffffffffffffffff168152602001828152602001965050505050505060405180910390a17f26b95af02abf5499beda8b0f282f46641b1866d844cc37683cd3589ba1db1b37836020015182604051808373ffffffffffffffffffffffffffffffffffffffff1673ffffffffffffffffffffffffffffffffffffffff16815260200180602001828103825283818151815260200191508051906020019080838360005b8381101561517e578082015181840152602081019050615163565b50505050905090810190601f1680156151ab5780820380516001836020036101000a031916815260200191505b50935050505060405180910390a1600096505050505050615c65565b3d80600081146151f3576040519150601f19603f3d011682016040523d82523d6000602084013e6151f8565b606091505b507fcb6ddd4a252f58c1ff32f31fbb529dc35e8f6a81908f6211bbe7dfa94ef52f1f6005600881819054906101000a900467ffffffffffffffff168092919060010191906101000a81548167ffffffffffffffff021916908367ffffffffffffffff160217905550846040015185606001518587602001518860000151604051808767ffffffffffffffff1681526020018673ffffffffffffffffffffffffffffffffffffffff1673ffffffffffffffffffffffffffffffffffffffff1681526020018573ffffffffffffffffffffffffffffffffffffffff1673ffffffffffffffffffffffffffffffffffffffff1681526020018481526020018373ffffffffffffffffffffffffffffffffffffffff1673ffffffffffffffffffffffffffffffffffffffff168152602001828152602001965050505050505060405180910390a17ff6f8b6f53d34d55efe34413ac830465a6c542587f6ade035d7c9b6e4f35b0294836020015182604051808373ffffffffffffffffffffffffffffffffffffffff1673ffffffffffffffffffffffffffffffffffffffff16815260200180602001828103825283818151815260200191508051906020019080838360005b838110156153d45780820151818401526020810190506153b9565b50505050905090810190601f1680156154015780820380516001836020036101000a031916815260200191505b50935050505060405180910390a1600096505050505050615c65565b8015615507577f8b8816b9cf4590950a140d102435e65bcce6ee7c84bb38367dd2bb71b8ae4ad26001600460089054906101000a900467ffffffffffffffff1603846060015185608001518660200151604051808567ffffffffffffffff1681526020018473ffffffffffffffffffffffffffffffffffffffff1673ffffffffffffffffffffffffffffffffffffffff1681526020018381526020018273ffffffffffffffffffffffffffffffffffffffff1673ffffffffffffffffffffffffffffffffffffffff16815260200194505050505060405180910390a1600196505050505050615c65565b826020015173ffffffffffffffffffffffffffffffffffffffff166370a0823161c350306040518363ffffffff1660e01b8152600401808273ffffffffffffffffffffffffffffffffffffffff1673ffffffffffffffffffffffffffffffffffffffff16815260200191505060206040518083038187803b15801561558b57600080fd5b5086fa935050505080156155c057506040513d60208110156155ac57600080fd5b810190808051906020019092919050505060015b615b105760006040519050600081526001156156895760443d10156155e85760009050615689565b60046000803e60005160e01c6308c379a08114615609576000915050615689565b60043d036004833e81513d602482011167ffffffffffffffff8211171561563557600092505050615689565b808301805167ffffffffffffffff811115615657576000945050505050615689565b8060208301013d860181111561567557600095505050505050615689565b601f19601f82011660405282955050505050505b8061569457506158b9565b7fcb6ddd4a252f58c1ff32f31fbb529dc35e8f6a81908f6211bbe7dfa94ef52f1f6005600881819054906101000a900467ffffffffffffffff168092919060010191906101000a81548167ffffffffffffffff021916908367ffffffffffffffff160217905550856040015186606001518688602001518960000151604051808767ffffffffffffffff1681526020018673ffffffffffffffffffffffffffffffffffffffff1673ffffffffffffffffffffffffffffffffffffffff1681526020018573ffffffffffffffffffffffffffffffffffffffff1673ffffffffffffffffffffffffffffffffffffffff1681526020018481526020018373ffffffffffffffffffffffffffffffffffffffff1673ffffffffffffffffffffffffffffffffffffffff168152602001828152602001965050505050505060405180910390a17f26b95af02abf5499beda8b0f282f46641b1866d844cc37683cd3589ba1db1b37846020015182604051808373ffffffffffffffffffffffffffffffffffffffff1673ffffffffffffffffffffffffffffffffffffffff16815260200180602001828103825283818151815260200191508051906020019080838360005b8381101561586f578082015181840152602081019050615854565b50505050905090810190601f16801561589c5780820380516001836020036101000a031916815260200191505b50935050505060405180910390a160009750505050505050615c65565b3d80600081146158e5576040519150601f19603f3d011682016040523d82523d6000602084013e6158ea565b606091505b507fcb6ddd4a252f58c1ff32f31fbb529dc35e8f6a81908f6211bbe7dfa94ef52f1f6005600881819054906101000a900467ffffffffffffffff168092919060010191906101000a81548167ffffffffffffffff021916908367ffffffffffffffff160217905550856040015186606001518688602001518960000151604051808767ffffffffffffffff1681526020018673ffffffffffffffffffffffffffffffffffffffff1673ffffffffffffffffffffffffffffffffffffffff1681526020018573ffffffffffffffffffffffffffffffffffffffff1673ffffffffffffffffffffffffffffffffffffffff1681526020018481526020018373ffffffffffffffffffffffffffffffffffffffff1673ffffffffffffffffffffffffffffffffffffffff168152602001828152602001965050505050505060405180910390a17ff6f8b6f53d34d55efe34413ac830465a6c542587f6ade035d7c9b6e4f35b0294846020015182604051808373ffffffffffffffffffffffffffffffffffffffff1673ffffffffffffffffffffffffffffffffffffffff16815260200180602001828103825283818151815260200191508051906020019080838360005b83811015615ac6578082015181840152602081019050615aab565b50505050905090810190601f168015615af35780820380516001836020036101000a031916815260200191505b50935050505060405180910390a160009750505050505050615c65565b7f1de400dfa3e72ba83f12c6f1d8b9b85dc3d2aedc6eacc27b481267826aec74226005600881819054906101000a900467ffffffffffffffff168092919060010191906101000a81548167ffffffffffffffff021916908367ffffffffffffffff16021790555085604001518660600151868860200151896000015187604051808867ffffffffffffffff1681526020018773ffffffffffffffffffffffffffffffffffffffff1673ffffffffffffffffffffffffffffffffffffffff1681526020018673ffffffffffffffffffffffffffffffffffffffff1673ffffffffffffffffffffffffffffffffffffffff1681526020018581526020018473ffffffffffffffffffffffffffffffffffffffff1673ffffffffffffffffffffffffffffffffffffffff16815260200183815260200182815260200197505050505050505060405180910390a1600097505050505050505b509695505050505050565b60016020528060005260406000206000915090505481565b60026020528060005260406000206000915090505481565b600381565b600281565b61c35081565b600460189054906101000a900467ffffffffffffffff1681565b60008261100373ffffffffffffffffffffffffffffffffffffffff1663df5fe704826040518263ffffffff1660e01b8152600401808267ffffffffffffffff1667ffffffffffffffff16815260200191505060206040518083038186803b158015615d3457600080fd5b505afa158015615d48573d6000803e3d6000fd5b505050506040513d6020811015615d5e57600080fd5b8101908080519060200190929190505050615de1576040517f08c379a000000000000000000000000000000000000000000000000000000000815260040180806020018281038252601e8152602001807f7265666572656e636520686561646572206973206e6f742073796e636564000081525060200191505060405180910390fd5b61100673ffffffffffffffffffffffffffffffffffffffff1663541d5548336040518263ffffffff1660e01b8152600401808273ffffffffffffffffffffffffffffffffffffffff1673ffffffffffffffffffffffffffffffffffffffff16815260200191505060206040518083038186803b158015615e6057600080fd5b505afa158015615e74573d6000803e3d6000fd5b505050506040513d6020811015615e8a57600080fd5b8101908080519060200190929190505050615f0d576040517f08c379a000000000000000000000000000000000000000000000000000000000815260040180806020018281038252601f8152602001807f746865206d73672073656e646572206973206e6f7420612072656c617965720081525060200191505060405180910390fd5b600460109054906101000a900467ffffffffffffffff1667ffffffffffffffff168367ffffffffffffffff1614615fac576040517f08c379a00000000000000000000000000000000000000000000000000000000081526004018080602001828103825260158152602001807f77726f6e6720726566756e642073657175656e6365000000000000000000000081525060200191505060405180910390fd5b604a8888905014616025576040517f08c379a00000000000000000000000000000000000000000000000000000000081526004018080602001828103825260198152602001807f77726f6e6720726566756e64207061636b6167652073697a650000000000000081525060200191505060405180910390fd5b600061100373ffffffffffffffffffffffffffffffffffffffff1663cba510a9866040518263ffffffff1660e01b8152600401808267ffffffffffffffff1667ffffffffffffffff16815260200191505060206040518083038186803b15801561608e57600080fd5b505afa1580156160a2573d6000803e3d6000fd5b505050506040513d60208110156160b857600080fd5b8101908080519060200190929190505050905073__MerkleProof___________________________638c60e815826040518060400160405280600381526020017f69626300000000000000000000000000000000000000000000000000000000008152506161476003600460109054906101000a900467ffffffffffffffff1667ffffffffffffffff16617f7b565b8d8d8d8d6040518863ffffffff1660e01b8152600401808881526020018060200180602001806020018060200185810385528b818151815260200191508051906020019080838360005b838110156161ac578082015181840152602081019050616191565b50505050905090810190601f1680156161d95780820380516001836020036101000a031916815260200191505b5085810384528a818151815260200191508051906020019080838360005b838110156162125780820151818401526020810190506161f7565b50505050905090810190601f16801561623f5780820380516001836020036101000a031916815260200191505b508581038352898982818152602001925080828437600081840152601f19601f8201169050808301925050508581038252878782818152602001925080828437600081840152601f19601f8201169050808301925050509b50505050505050505050505060206040518083038186803b1580156162bb57600080fd5b505af41580156162cf573d6000803e3d6000fd5b505050506040513d60208110156162e557600080fd5b8101908080519060200190929190505050616368576040517f08c379a00000000000000000000000000000000000000000000000000000000081526004018080602001828103825260148152602001807f696e76616c6964206d65726b6c652070726f6f6600000000000000000000000081525060200191505060405180910390fd5b6004601081819054906101000a900467ffffffffffffffff168092919060010191906101000a81548167ffffffffffffffff021916908367ffffffffffffffff16021790555050600061100373ffffffffffffffffffffffffffffffffffffffff1663dda83148876040518263ffffffff1660e01b8152600401808267ffffffffffffffff1667ffffffffffffffff16815260200191505060206040518083038186803b15801561641857600080fd5b505afa15801561642c573d6000803e3d6000fd5b505050506040513d602081101561644257600080fd5b8101908080519060200190929190505050905060006005662386f26fc100008161646857fe5b04905061100273ffffffffffffffffffffffffffffffffffffffff16639a99b4f083836040518363ffffffff1660e01b8152600401808373ffffffffffffffffffffffffffffffffffffffff1673ffffffffffffffffffffffffffffffffffffffff16815260200182815260200192505050600060405180830381600087803b1580156164f457600080fd5b505af1158015616508573d6000803e3d6000fd5b5050505080662386f26fc1000003905061100273ffffffffffffffffffffffffffffffffffffffff16639a99b4f033836040518363ffffffff1660e01b8152600401808373ffffffffffffffffffffffffffffffffffffffff1673ffffffffffffffffffffffffffffffffffffffff16815260200182815260200192505050600060405180830381600087803b1580156165a157600080fd5b505af11580156165b5573d6000803e3d6000fd5b505050506165c1618419565b61660e8c8c8080601f016020809104026020016040519081016040528093929190818152602001838380828437600081840152601f19601f82011690508083019250505050505050618249565b9050600073ffffffffffffffffffffffffffffffffffffffff16816020015173ffffffffffffffffffffffffffffffffffffffff16141561690a576000479050816000015181101561672f577f3c4b6baf924ba2c954f9d76392ea4a866fda4b545684f54badbb5ab67c59f277826020015183604001518460000151856060015185604051808673ffffffffffffffffffffffffffffffffffffffff1673ffffffffffffffffffffffffffffffffffffffff1681526020018573ffffffffffffffffffffffffffffffffffffffff1673ffffffffffffffffffffffffffffffffffffffff1681526020018481526020018361ffff1661ffff1681526020018281526020019550505050505060405180910390a16000965050505050506175df565b816040015173ffffffffffffffffffffffffffffffffffffffff166108fc83600001519081150290604051600060405180830381858888f1935050505061683d577f21ecc19fbf4244dbd58a78f83d525251163700dfdeec195b4e0ab98127ad790c8260200151836040015184600001518560600151604051808573ffffffffffffffffffffffffffffffffffffffff1673ffffffffffffffffffffffffffffffffffffffff1681526020018473ffffffffffffffffffffffffffffffffffffffff1673ffffffffffffffffffffffffffffffffffffffff1681526020018381526020018261ffff1661ffff16815260200194505050505060405180910390a16000965050505050506175df565b7f5d287c29bf23b5f4c450d5e83e5ca51c1f8225afb6f253e9d2ca107893b2a7e48260200151836040015184600001518560600151604051808573ffffffffffffffffffffffffffffffffffffffff1673ffffffffffffffffffffffffffffffffffffffff1681526020018473ffffffffffffffffffffffffffffffffffffffff1673ffffffffffffffffffffffffffffffffffffffff1681526020018381526020018261ffff1661ffff16815260200194505050505060405180910390a16001965050505050506175df565b6000801b60016000836020015173ffffffffffffffffffffffffffffffffffffffff1673ffffffffffffffffffffffffffffffffffffffff168152602001908152602001600020541415616a24577fc9f4828eed39b4d08b0bcc16c824d67db7f30fdb36aa5572912134742f623f998160200151826040015183600001518460600151604051808573ffffffffffffffffffffffffffffffffffffffff1673ffffffffffffffffffffffffffffffffffffffff1681526020018473ffffffffffffffffffffffffffffffffffffffff1673ffffffffffffffffffffffffffffffffffffffff1681526020018381526020018261ffff1661ffff16815260200194505050505060405180910390a160009550505050506175df565b806020015173ffffffffffffffffffffffffffffffffffffffff1663a9059cbb61c350836040015184600001516040518463ffffffff1660e01b8152600401808373ffffffffffffffffffffffffffffffffffffffff1673ffffffffffffffffffffffffffffffffffffffff16815260200182815260200192505050602060405180830381600088803b158015616aba57600080fd5b5087f193505050508015616aef57506040513d6020811015616adb57600080fd5b810190808051906020019092919050505060015b616f37576000604051905060008152600115616bb85760443d1015616b175760009050616bb8565b60046000803e60005160e01c6308c379a08114616b38576000915050616bb8565b60043d036004833e81513d602482011167ffffffffffffffff82111715616b6457600092505050616bb8565b808301805167ffffffffffffffff811115616b86576000945050505050616bb8565b8060208301013d8601811115616ba457600095505050505050616bb8565b601f19601f82011660405282955050505050505b80616bc35750616d64565b7f21ecc19fbf4244dbd58a78f83d525251163700dfdeec195b4e0ab98127ad790c8260200151836040015184600001518560600151604051808573ffffffffffffffffffffffffffffffffffffffff1673ffffffffffffffffffffffffffffffffffffffff1681526020018473ffffffffffffffffffffffffffffffffffffffff1673ffffffffffffffffffffffffffffffffffffffff1681526020018381526020018261ffff1661ffff16815260200194505050505060405180910390a17f26b95af02abf5499beda8b0f282f46641b1866d844cc37683cd3589ba1db1b37826020015182604051808373ffffffffffffffffffffffffffffffffffffffff1673ffffffffffffffffffffffffffffffffffffffff16815260200180602001828103825283818151815260200191508051906020019080838360005b83811015616d1b578082015181840152602081019050616d00565b50505050905090810190601f168015616d485780820380516001836020036101000a031916815260200191505b50935050505060405180910390a16000965050505050506175df565b3d8060008114616d90576040519150601f19603f3d011682016040523d82523d6000602084013e616d95565b606091505b507f21ecc19fbf4244dbd58a78f83d525251163700dfdeec195b4e0ab98127ad790c8260200151836040015184600001518560600151604051808573ffffffffffffffffffffffffffffffffffffffff1673ffffffffffffffffffffffffffffffffffffffff1681526020018473ffffffffffffffffffffffffffffffffffffffff1673ffffffffffffffffffffffffffffffffffffffff1681526020018381526020018261ffff1661ffff16815260200194505050505060405180910390a17ff6f8b6f53d34d55efe34413ac830465a6c542587f6ade035d7c9b6e4f35b0294826020015182604051808373ffffffffffffffffffffffffffffffffffffffff1673ffffffffffffffffffffffffffffffffffffffff16815260200180602001828103825283818151815260200191508051906020019080838360005b83811015616eee578082015181840152602081019050616ed3565b50505050905090810190601f168015616f1b5780820380516001836020036101000a031916815260200191505b50935050505060405180910390a16000965050505050506175df565b801561700a577f5d287c29bf23b5f4c450d5e83e5ca51c1f8225afb6f253e9d2ca107893b2a7e48260200151836040015184600001518560600151604051808573ffffffffffffffffffffffffffffffffffffffff1673ffffffffffffffffffffffffffffffffffffffff1681526020018473ffffffffffffffffffffffffffffffffffffffff1673ffffffffffffffffffffffffffffffffffffffff1681526020018381526020018261ffff1661ffff16815260200194505050505060405180910390a16001965050505050506175df565b816020015173ffffffffffffffffffffffffffffffffffffffff166370a0823161c350306040518363ffffffff1660e01b8152600401808273ffffffffffffffffffffffffffffffffffffffff1673ffffffffffffffffffffffffffffffffffffffff16815260200191505060206040518083038187803b15801561708e57600080fd5b5086fa935050505080156170c357506040513d60208110156170af57600080fd5b810190808051906020019092919050505060015b61750d57600060405190506000815260011561718c5760443d10156170eb576000905061718c565b60046000803e60005160e01c6308c379a0811461710c57600091505061718c565b60043d036004833e81513d602482011167ffffffffffffffff821117156171385760009250505061718c565b808301805167ffffffffffffffff81111561715a57600094505050505061718c565b8060208301013d86018111156171785760009550505050505061718c565b601f19601f82011660405282955050505050505b806171975750617339565b7f21ecc19fbf4244dbd58a78f83d525251163700dfdeec195b4e0ab98127ad790c8360200151846040015185600001518660600151604051808573ffffffffffffffffffffffffffffffffffffffff1673ffffffffffffffffffffffffffffffffffffffff1681526020018473ffffffffffffffffffffffffffffffffffffffff1673ffffffffffffffffffffffffffffffffffffffff1681526020018381526020018261ffff1661ffff16815260200194505050505060405180910390a17f26b95af02abf5499beda8b0f282f46641b1866d844cc37683cd3589ba1db1b37836020015182604051808373ffffffffffffffffffffffffffffffffffffffff1673ffffffffffffffffffffffffffffffffffffffff16815260200180602001828103825283818151815260200191508051906020019080838360005b838110156172ef5780820151818401526020810190506172d4565b50505050905090810190601f16801561731c5780820380516001836020036101000a031916815260200191505b50935050505060405180910390a1600097505050505050506175df565b3d8060008114617365576040519150601f19603f3d011682016040523d82523d6000602084013e61736a565b606091505b507f21ecc19fbf4244dbd58a78f83d525251163700dfdeec195b4e0ab98127ad790c8360200151846040015185600001518660600151604051808573ffffffffffffffffffffffffffffffffffffffff1673ffffffffffffffffffffffffffffffffffffffff1681526020018473ffffffffffffffffffffffffffffffffffffffff1673ffffffffffffffffffffffffffffffffffffffff1681526020018381526020018261ffff1661ffff16815260200194505050505060405180910390a17ff6f8b6f53d34d55efe34413ac830465a6c542587f6ade035d7c9b6e4f35b0294836020015182604051808373ffffffffffffffffffffffffffffffffffffffff1673ffffffffffffffffffffffffffffffffffffffff16815260200180602001828103825283818151815260200191508051906020019080838360005b838110156174c35780820151818401526020810190506174a8565b50505050905090810190601f1680156174f05780820380516001836020036101000a031916815260200191505b50935050505060405180910390a1600097505050505050506175df565b7f3c4b6baf924ba2c954f9d76392ea4a866fda4b545684f54badbb5ab67c59f277836020015184604001518560000151866060015185604051808673ffffffffffffffffffffffffffffffffffffffff1673ffffffffffffffffffffffffffffffffffffffff1681526020018573ffffffffffffffffffffffffffffffffffffffff1673ffffffffffffffffffffffffffffffffffffffff1681526020018481526020018361ffff1661ffff1681526020018281526020019550505050505060405180910390a1600097505050505050505b509695505050505050565b662386f26fc1000081565b6000806402540be400838161760657fe5b061461767a576040517f08c379a000000000000000000000000000000000000000000000000000000000815260040180806020018281038252601b8152602001807f72656c6179466565206973206d757374206265204e2a31305e3130000000000081525060200191505060405180910390fd5b662386f26fc100008210156176f7576040517f08c379a00000000000000000000000000000000000000000000000000000000081526004018080602001828103825260168152602001807f72656c617946656520697320746f6f206c6974746c650000000000000000000081525060200191505060405180910390fd5b60784201831015617753576040517f08c379a00000000000000000000000000000000000000000000000000000000081526004018080602001828103825260248152602001806184726024913960400191505060405180910390fd5b60006402540be400838161776357fe5b049050600080600073ffffffffffffffffffffffffffffffffffffffff168973ffffffffffffffffffffffffffffffffffffffff1614156178345784870134146177f8576040517f08c379a000000000000000000000000000000000000000000000000000000000815260040180806020018281038252604c8152602001806184fe604c913960600191505060405180910390fd5b6402540be400878161780657fe5b0490507f424e42000000000000000000000000000000000000000000000000000000000060001b9150617b5d565b6000600260008b73ffffffffffffffffffffffffffffffffffffffff1673ffffffffffffffffffffffffffffffffffffffff16815260200190815260200160002054905060088111156178f057600060088203600a0a90506000818a8161789757fe5b06146178ee576040517f08c379a000000000000000000000000000000000000000000000000000000000815260040180806020018281038252603c8152602001806185b9603c913960400191505060405180910390fd5b505b600160008b73ffffffffffffffffffffffffffffffffffffffff1673ffffffffffffffffffffffffffffffffffffffff1681526020019081526020016000205492506000801b83141561798e576040517f08c379a00000000000000000000000000000000000000000000000000000000081526004018080602001828103825260308152602001806185896030913960400191505060405180910390fd5b8534146179e6576040517f08c379a000000000000000000000000000000000000000000000000000000000815260040180806020018281038252602d815260200180618694602d913960400191505060405180910390fd5b8973ffffffffffffffffffffffffffffffffffffffff166323b872dd33308b6040518463ffffffff1660e01b8152600401808473ffffffffffffffffffffffffffffffffffffffff1673ffffffffffffffffffffffffffffffffffffffff1681526020018373ffffffffffffffffffffffffffffffffffffffff1673ffffffffffffffffffffffffffffffffffffffff1681526020018281526020019350505050602060405180830381600087803b158015617aa157600080fd5b505af1158015617ab5573d6000803e3d6000fd5b505050506040513d6020811015617acb57600080fd5b8101908080519060200190929190505050617ae557600080fd5b80600a0a6305f5e100890281617af757fe5b049150677ce66c50e2840000821115617b5b576040517f08c379a00000000000000000000000000000000000000000000000000000000081526004018080602001828103825260238152602001806184966023913960400191505060405180910390fd5b505b7f5bd451c53ab05abd9855ceb52a469590655af1d732a4cfd67f1f9b53d74dc6136004601881819054906101000a900467ffffffffffffffff168092919060010191906101000a81548167ffffffffffffffff021916908367ffffffffffffffff160217905550338a848d878c8a604051808967ffffffffffffffff1681526020018873ffffffffffffffffffffffffffffffffffffffff1673ffffffffffffffffffffffffffffffffffffffff1681526020018773ffffffffffffffffffffffffffffffffffffffff1673ffffffffffffffffffffffffffffffffffffffff1681526020018681526020018573ffffffffffffffffffffffffffffffffffffffff1673ffffffffffffffffffffffffffffffffffffffff1681526020018481526020018381526020018281526020019850505050505050505060405180910390a16001935050505095945050505050565b6040518060400160405280600381526020017f696263000000000000000000000000000000000000000000000000000000000081525081565b600460009054906101000a900467ffffffffffffffff1681565b600460089054906101000a900467ffffffffffffffff1681565b61100681565b60006020528060005260406000206000915090508060000154908060010160009054906101000a900473ffffffffffffffffffffffffffffffffffffffff16908060020154908060030154908060040160009054906101000a900460ff16908060040160019054906101000a900467ffffffffffffffff16908060050154905087565b6000806020830151905080915050919050565b6000606083905060008090505b8151811015617e8657818181518110617dda57fe5b602001015160f81c60f81b60f81c60ff16606111158015617e185750607a828281518110617e0457fe5b602001015160f81c60f81b60f81c60ff1611155b15617e79576020828281518110617e2b57fe5b602001015160f81c60f81b60f81c0360f81b828281518110617e4957fe5b60200101907effffffffffffffffffffffffffffffffffffffffffffffffffffffffffffff1916908160001a9053505b8080600101915050617dc5565b50606060206040519080825280601f01601f191660200182016040528015617ebd5781602001600182028036833780820191505090505b50905083602082015260006001905060008090505b8351811015617f6857828181518110617ee757fe5b602001015160f81c60f81b7effffffffffffffffffffffffffffffffffffffffffffffffffffffffffffff1916848281518110617f2057fe5b602001015160f81c60f81b7effffffffffffffffffffffffffffffffffffffffffffffffffffffffffffff191614617f5b5760009150617f68565b8080600101915050617ed2565b5080935050505092915050565b61100281565b606080600e6040519080825280601f01601f191660200182016040528015617fb25781602001600182028036833780820191505090505b5090506000600e82019050838152600881039050848152600181039050620100028152600581039050600e8152819250505092915050565b617ff261832a565b617ffa61832a565b60008390506000602082019150815190508083600001818152505060006014830192508251905080846020019073ffffffffffffffffffffffffffffffffffffffff16908173ffffffffffffffffffffffffffffffffffffffff168152505060006020840193508351905080856040018181525050602084019350835190508085606001818152505060018401935060008451905080866080019060ff16908160ff1681525050600885019450600085519050808760a0019067ffffffffffffffff16908167ffffffffffffffff168152505060208601955085519250828760c001818152505086975050505050505050919050565b6180f861838d565b61810061838d565b60008390506000806000602084019350600084519050808660000181815250506014850194508451915081866020019073ffffffffffffffffffffffffffffffffffffffff16908173ffffffffffffffffffffffffffffffffffffffff16815250506014850194508451915081866040019073ffffffffffffffffffffffffffffffffffffffff16908173ffffffffffffffffffffffffffffffffffffffff16815250506014850194508451925082866060019073ffffffffffffffffffffffffffffffffffffffff16908173ffffffffffffffffffffffffffffffffffffffff16815250506020850194508451935083866080018181525050600885019450600085519050808760a0019067ffffffffffffffff16908167ffffffffffffffff168152505060208601955085519450848760c001818152505086975050505050505050919050565b618251618419565b618259618419565b60008390506020810190506000815190508083600001818152505060148201915060008251905080846020019073ffffffffffffffffffffffffffffffffffffffff16908173ffffffffffffffffffffffffffffffffffffffff168152505060148301925060008351905080856040019073ffffffffffffffffffffffffffffffffffffffff16908173ffffffffffffffffffffffffffffffffffffffff168152505060028401935060008451905080866060019061ffff16908161ffff1681525050859650505050505050919050565b6040518060e0016040528060008019168152602001600073ffffffffffffffffffffffffffffffffffffffff1681526020016000815260200160008152602001600060ff168152602001600067ffffffffffffffff168152602001600081525090565b6040518060e0016040528060008019168152602001600073ffffffffffffffffffffffffffffffffffffffff168152602001600073ffffffffffffffffffffffffffffffffffffffff168152602001600073ffffffffffffffffffffffffffffffffffffffff16815260200160008152602001600067ffffffffffffffff168152602001600081525090565b604051806080016040528060008152602001600073ffffffffffffffffffffffffffffffffffffffff168152602001600073ffffffffffffffffffffffffffffffffffffffff168152602001600061ffff168152509056fe65787069726554696d65206d7573742062652074776f206d696e75746573206c61746572616d6f756e7420697320746f6f206c617267652c20696e743634206f766572666c6f77636f6e74616374206164647265737320646f65736e277420657175616c20746f2074686520636f6e7472616374206164647265737320696e2062696e642072657175657374726563656976656420424e4220616d6f756e7420646f65736e277420657175616c20746f207468652073756d206f66207472616e7366657220616d6f756e7420616e642072656c61794665654c656e677468206f6620726563697069656e74416464727320646f65736e277420657175616c20746f206c656e677468206f6620726566756e64416464727374686520636f6e747261637420686173206e6f74206265656e2062696e6420746f20616e79206265703220746f6b656e696e76616c6964207472616e7366657220616d6f756e743a20707265636973696f6e206c6f737320696e20616d6f756e7420636f6e76657273696f6e6f6e6c79206572633230206f776e65722063616e20617070726f766520746869732062696e642072657175657374616c6c6f77616e636520646f65736e277420657175616c20746f2028746f74616c537570706c79202d207065676779416d6f756e74294c656e677468206f6620726563697069656e74416464727320646f65736e277420657175616c20746f206c656e677468206f6620616d6f756e7473726563656976656420424e4220616d6f756e7420646f65736e277420657175616c20746f2072656c6179466565a2646970667358221220118ea187a5d21fbd0003af65efa40141d151e9810eb9e7d44ac488eddd7370cf64736f6c63430006040033",
  "source": "pragma solidity 0.6.4;\r\n\r\nimport \"./IERC20.sol\";\r\nimport \"./ILightClient.sol\";\r\nimport \"./IRelayerIncentivize.sol\";\r\nimport \"./MerkleProof.sol\";\r\nimport \"./ISystemReward.sol\";\r\nimport \"./ITokenHub.sol\";\r\nimport \"./IRelayerHub.sol\";\r\n\r\ncontract TokenHub is ITokenHub {\r\n\r\n  struct BindPackage {\r\n    bytes32 bep2TokenSymbol;\r\n    address contractAddr;\r\n    uint256 totalSupply;\r\n    uint256 peggyAmount;\r\n    uint8   erc20Decimals;\r\n    uint64  expireTime;\r\n    uint256 relayFee;\r\n  }\r\n\r\n  struct RefundPackage {\r\n    uint256 refundAmount;\r\n    address contractAddr;\r\n    address payable refundAddr;\r\n    uint16  reason;\r\n  }\r\n\r\n  struct TransferInPackage {\r\n    bytes32 bep2TokenSymbol;\r\n    address contractAddr;\r\n    address refundAddr;\r\n    address payable recipient;\r\n    uint256 amount;\r\n    uint64  expireTime;\r\n    uint256 relayFee;\r\n  }\r\n\r\n  uint8 constant public bindChannelID = 0x01;\r\n  uint8 constant public transferInChannelID = 0x02;\r\n  uint8 constant public refundChannelID=0x03;\r\n  // the store name of the package\r\n  string constant public STORE_NAME = \"ibc\";\r\n  uint256 constant public maxBep2TotalSupply = 9000000000000000000;\r\n\r\n  bytes32 constant bep2TokenSymbolForBNB = 0x424E420000000000000000000000000000000000000000000000000000000000; // \"BNB\"\r\n  bytes32 constant crossChainKeyPrefix = 0x0000000000000000000000000000000000000000000000000000000000010002; // last 5 bytes\r\n\r\n  uint256 constant public _maxGasForCallingERC20=50000;\r\n\r\n  uint256 constant public _minimumRelayFee=10000000000000000;\r\n  uint256 constant public _refundRelayReward=10000000000000000;\r\n  address constant public _relayerHubContract=0x0000000000000000000000000000000000001006;\r\n  address constant public _systemRewardContract=0x0000000000000000000000000000000000001002;\r\n  address constant public _lightClientContract=0x0000000000000000000000000000000000001003;\r\n  address constant public _incentivizeContractForRelayers=0x0000000000000000000000000000000000001005;\r\n\r\n\r\n  mapping(bytes32 => BindPackage) public _bindPackageRecord;\r\n  mapping(address => bytes32) public _contractAddrToBEP2Symbol;\r\n  mapping(address => uint256) public _erc20ContractDecimals;\r\n  mapping(bytes32 => address) public _bep2SymbolToContractAddr;\r\n\r\n  uint64 public _bindChannelSequence=0;\r\n  uint64 public _transferInChannelSequence=0;\r\n  uint64 public _refundChannelSequence=0;\r\n\r\n  uint64 public _transferOutChannelSequence=0;\r\n  uint64 public _bindResponseChannelSequence=0;\r\n  uint64 public _transferInFailureChannelSequence=0;\r\n\r\n  event LogBindRequest(address contractAddr, bytes32 bep2TokenSymbol, uint256 totalSupply, uint256 peggyAmount);\r\n  event LogBindSuccess(uint256 sequence, address contractAddr, bytes32 bep2TokenSymbol, uint256 totalSupply, uint256 peggyAmount, uint256 decimals);\r\n  event LogBindRejected(uint256 sequence, address contractAddr, bytes32 bep2TokenSymbol);\r\n  event LogBindTimeout(uint256 sequence, address contractAddr, bytes32 bep2TokenSymbol);\r\n  event LogBindInvalidParameter(uint256 sequence, address contractAddr, bytes32 bep2TokenSymbol);\r\n\r\n  event LogTransferOut(uint256 sequence, address refundAddr, address recipient, uint256 amount, address contractAddr, bytes32 bep2TokenSymbol, uint256 expireTime, uint256 relayFee);\r\n  event LogBatchTransferOut(uint256 sequence, uint256[] amounts, address contractAddr, bytes32 bep2TokenSymbol, uint256 expireTime, uint256 relayFee);\r\n  event LogBatchTransferOutAddrs(uint256 sequence, address[] recipientAddrs, address[] refundAddrs);\r\n\r\n  event LogTransferInSuccess(uint256 sequence, address recipient, uint256 amount, address contractAddr);\r\n  event LogTransferInFailureTimeout(uint256 sequence, address refundAddr, address recipient, uint256 bep2TokenAmount, address contractAddr, bytes32 bep2TokenSymbol, uint256 expireTime);\r\n  event LogTransferInFailureInsufficientBalance(uint256 sequence, address refundAddr, address recipient, uint256 bep2TokenAmount, address contractAddr, bytes32 bep2TokenSymbol, uint256 actualBalance);\r\n  event LogTransferInFailureUnboundToken(uint256 sequence, address refundAddr, address recipient, uint256 bep2TokenAmount, address contractAddr, bytes32 bep2TokenSymbol);\r\n  event LogTransferInFailureUnknownReason(uint256 sequence, address refundAddr, address recipient, uint256 bep2TokenAmount, address contractAddr, bytes32 bep2TokenSymbol);\r\n\r\n  event LogRefundSuccess(address contractAddr, address refundAddr, uint256 amount, uint16 reason);\r\n  event LogRefundFailureInsufficientBalance(address contractAddr, address refundAddr, uint256 amount, uint16 reason, uint256 actualBalance);\r\n  event LogRefundFailureUnboundToken(address contractAddr, address refundAddr, uint256 amount, uint16 reason);\r\n  event LogRefundFailureUnknownReason(address contractAddr, address refundAddr, uint256 amount, uint16 reason);\r\n\r\n  event LogUnexpectedRevertInERC20(address contractAddr, string reason);\r\n  event LogUnexpectedFailureAssertionInERC20(address contractAddr, bytes lowLevelData);\r\n\r\n  constructor() public {}\r\n\r\n\r\n\r\n  modifier onlyHeaderSynced(uint64 height) {\r\n    require(ILightClient(_lightClientContract).isHeaderSynced(height), \"reference header is not synced\");\r\n    _;\r\n  }\r\n\r\n\r\n  modifier onlyRelayer() {\r\n    require(IRelayerHub(_relayerHubContract).isRelayer(msg.sender), \"the msg sender is not a relayer\");\r\n    _;\r\n  }\r\n\r\n  function bep2TokenSymbolConvert(string memory symbol) public pure returns(bytes32) {\r\n    bytes32 result;\r\n    assembly {\r\n      result := mload(add(symbol, 32))\r\n    }\r\n    return result;\r\n  }\r\n\r\n  // | length   | prefix | sourceChainID| destinationChainID | channelID | sequence |\r\n  // | 32 bytes | 1 byte | 2 bytes    | 2 bytes      |  1 bytes  | 8 bytes  |\r\n  function generateKey(uint8 channelID, uint256 sequence) internal pure returns(bytes memory) {\r\n    bytes memory key = new bytes(14);\r\n\r\n    uint256 ptr;\r\n    assembly {\r\n      ptr := add(key, 14)\r\n    }\r\n\r\n\r\n    assembly {\r\n      mstore(ptr, sequence)\r\n    }\r\n    ptr -= 8;\r\n\r\n\r\n    assembly {\r\n      mstore(ptr, channelID)\r\n    }\r\n    ptr -= 1;\r\n\r\n    assembly {\r\n      mstore(ptr, crossChainKeyPrefix)\r\n    }\r\n    ptr -= 5;\r\n\r\n    assembly {\r\n      mstore(ptr, 14)\r\n    }\r\n\r\n    return key;\r\n  }\r\n\r\n  // | length   | bep2TokenSymbol | contractAddr | totalSupply | peggyAmount | decimals | expireTime | relayFee |\r\n  // | 32 bytes | 32 bytes        | 20 bytes     |  32 bytes   | 32 bytes    | 1 byte   | 8 bytes    | 32 bytes |\r\n  function decodeBindPackage(bytes memory value) internal pure returns(BindPackage memory) {\r\n    BindPackage memory bindPackage;\r\n\r\n    uint256 ptr;\r\n    assembly {\r\n      ptr := value\r\n    }\r\n\r\n    bytes32 bep2TokenSymbol;\r\n    ptr+=32;\r\n    assembly {\r\n      bep2TokenSymbol := mload(ptr)\r\n    }\r\n    bindPackage.bep2TokenSymbol = bep2TokenSymbol;\r\n\r\n    address addr;\r\n\r\n    ptr+=20;\r\n    assembly {\r\n      addr := mload(ptr)\r\n    }\r\n    bindPackage.contractAddr = addr;\r\n\r\n    uint256 tempValue;\r\n    ptr+=32;\r\n    assembly {\r\n      tempValue := mload(ptr)\r\n    }\r\n    bindPackage.totalSupply = tempValue;\r\n\r\n    ptr+=32;\r\n    assembly {\r\n      tempValue := mload(ptr)\r\n    }\r\n    bindPackage.peggyAmount = tempValue;\r\n\r\n    ptr+=1;\r\n    uint8 decimals;\r\n    assembly {\r\n      decimals := mload(ptr)\r\n    }\r\n    bindPackage.erc20Decimals = decimals;\r\n\r\n    ptr+=8;\r\n    uint64 expireTime;\r\n    assembly {\r\n      expireTime := mload(ptr)\r\n    }\r\n    bindPackage.expireTime = expireTime;\r\n\r\n    ptr+=32;\r\n    assembly {\r\n      tempValue := mload(ptr)\r\n    }\r\n    bindPackage.relayFee = tempValue;\r\n\r\n    return bindPackage;\r\n  }\r\n\r\n  function handleBindPackage(bytes calldata msgBytes, bytes calldata proof, uint64 height, uint64 packageSequence) onlyHeaderSynced(height) onlyRelayer override external returns (bool) {\r\n    require(packageSequence==_bindChannelSequence, \"wrong bind sequence\");\r\n    require(msgBytes.length==157, \"wrong bind package size\");\r\n    bytes32 appHash = ILightClient(_lightClientContract).getAppHash(height);\r\n    require(MerkleProof.validateMerkleProof(appHash, STORE_NAME, generateKey(bindChannelID, _bindChannelSequence), msgBytes, proof), \"invalid merkle proof\");\r\n    _bindChannelSequence++;\r\n\r\n    address payable tendermintHeaderSubmitter = ILightClient(_lightClientContract).getSubmitter(height);\r\n    BindPackage memory bindPackage = decodeBindPackage(msgBytes);\r\n    IRelayerIncentivize(_incentivizeContractForRelayers).addReward{value: bindPackage.relayFee}(tendermintHeaderSubmitter, msg.sender);\r\n\r\n    _bindPackageRecord[bindPackage.bep2TokenSymbol]=bindPackage;\r\n    emit LogBindRequest(bindPackage.contractAddr, bindPackage.bep2TokenSymbol, bindPackage.totalSupply, bindPackage.peggyAmount);\r\n    return true;\r\n  }\r\n\r\n  function checkSymbol(string memory erc20Symbol, bytes32 bep2TokenSymbol) public pure returns(bool) {\r\n    bytes memory erc20SymbolBytes = bytes(erc20Symbol);\r\n    //Upper case string\r\n    for (uint i = 0; i < erc20SymbolBytes.length; i++) {\r\n      if (0x61 <= uint8(erc20SymbolBytes[i]) && uint8(erc20SymbolBytes[i]) <= 0x7A) {\r\n        erc20SymbolBytes[i] = byte(uint8(erc20SymbolBytes[i]) - 0x20);\r\n      }\r\n    }\r\n\r\n    bytes memory bep2TokenSymbolBytes = new bytes(32);\r\n    assembly {\r\n      mstore(add(bep2TokenSymbolBytes, 32), bep2TokenSymbol)\r\n    }\r\n    bool symbolMatch = true;\r\n    for(uint256 index=0; index < erc20SymbolBytes.length; index++) {\r\n      if (erc20SymbolBytes[index] != bep2TokenSymbolBytes[index]) {\r\n        symbolMatch = false;\r\n        break;\r\n      }\r\n    }\r\n    return symbolMatch;\r\n  }\r\n\r\n  function approveBind(address contractAddr, string memory bep2Symbol) public returns (bool) {\r\n    bytes32 bep2TokenSymbol = bep2TokenSymbolConvert(bep2Symbol);\r\n    BindPackage memory bindPackage = _bindPackageRecord[bep2TokenSymbol];\r\n    uint256 lockedAmount = bindPackage.totalSupply-bindPackage.peggyAmount;\r\n    require(contractAddr==bindPackage.contractAddr, \"contact address doesn't equal to the contract address in bind request\");\r\n    require(IERC20(contractAddr).getOwner()==msg.sender, \"only erc20 owner can approve this bind request\");\r\n    require(IERC20(contractAddr).allowance(msg.sender, address(this))==lockedAmount, \"allowance doesn't equal to (totalSupply - peggyAmount)\");\r\n\r\n    if (bindPackage.expireTime<block.timestamp) {\r\n      emit LogBindTimeout(_bindResponseChannelSequence++, bindPackage.contractAddr, bindPackage.bep2TokenSymbol);\r\n      delete _bindPackageRecord[bep2TokenSymbol];\r\n      return false;\r\n    }\r\n\r\n    uint256 decimals = IERC20(contractAddr).decimals();\r\n    string memory erc20Symbol = IERC20(contractAddr).symbol();\r\n    if (!checkSymbol(erc20Symbol, bep2TokenSymbol) ||\r\n      _bep2SymbolToContractAddr[bindPackage.bep2TokenSymbol]!=address(0x00)||\r\n      _contractAddrToBEP2Symbol[bindPackage.contractAddr]!=bytes32(0x00)||\r\n      IERC20(bindPackage.contractAddr).totalSupply()!=bindPackage.totalSupply||\r\n      decimals!=bindPackage.erc20Decimals) {\r\n      delete _bindPackageRecord[bep2TokenSymbol];\r\n      emit LogBindInvalidParameter(_bindResponseChannelSequence++, bindPackage.contractAddr, bindPackage.bep2TokenSymbol);\r\n      return false;\r\n    }\r\n    IERC20(contractAddr).transferFrom(msg.sender, address(this), lockedAmount);\r\n    _contractAddrToBEP2Symbol[bindPackage.contractAddr] = bindPackage.bep2TokenSymbol;\r\n    _erc20ContractDecimals[bindPackage.contractAddr] = bindPackage.erc20Decimals;\r\n    _bep2SymbolToContractAddr[bindPackage.bep2TokenSymbol] = bindPackage.contractAddr;\r\n\r\n    delete _bindPackageRecord[bep2TokenSymbol];\r\n    emit LogBindSuccess(_bindResponseChannelSequence++, bindPackage.contractAddr, bindPackage.bep2TokenSymbol, bindPackage.totalSupply, bindPackage.peggyAmount, decimals);\r\n    return true;\r\n  }\r\n\r\n  function rejectBind(address contractAddr, string memory bep2Symbol) public returns (bool) {\r\n    bytes32 bep2TokenSymbol = bep2TokenSymbolConvert(bep2Symbol);\r\n    BindPackage memory bindPackage = _bindPackageRecord[bep2TokenSymbol];\r\n    require(contractAddr==bindPackage.contractAddr, \"contact address doesn't equal to the contract address in bind request\");\r\n    require(IERC20(contractAddr).getOwner()==msg.sender, \"only erc20 owner can reject\");\r\n    delete _bindPackageRecord[bep2TokenSymbol];\r\n    emit LogBindRejected(_bindResponseChannelSequence++, bindPackage.contractAddr, bindPackage.bep2TokenSymbol);\r\n    return true;\r\n  }\r\n\r\n  function expireBind(string memory bep2Symbol) public returns (bool) {\r\n    bytes32 bep2TokenSymbol = bep2TokenSymbolConvert(bep2Symbol);\r\n    BindPackage memory bindPackage = _bindPackageRecord[bep2TokenSymbol];\r\n    require(bindPackage.expireTime<block.timestamp, \"bind request is not expired\");\r\n    delete _bindPackageRecord[bep2TokenSymbol];\r\n    emit LogBindTimeout(_bindResponseChannelSequence++, bindPackage.contractAddr, bindPackage.bep2TokenSymbol);\r\n    return true;\r\n  }\r\n\r\n  // | length   | bep2TokenSymbol | contractAddr | sender   | recipient | amount   | expireTime | relayFee |\r\n  // | 32 bytes | 32 bytes    | 20 bytes   | 20 bytes | 20 bytes  | 32 bytes | 8 bytes  | 32 bytes  |\r\n  function decodeTransferInPackage(bytes memory value) internal pure returns (TransferInPackage memory) {\r\n    TransferInPackage memory transferInPackage;\r\n\r\n    uint256 ptr;\r\n    assembly {\r\n      ptr := value\r\n    }\r\n\r\n    uint256 tempValue;\r\n    address payable recipient;\r\n    address addr;\r\n\r\n    ptr+=32;\r\n    bytes32 bep2TokenSymbol;\r\n    assembly {\r\n      bep2TokenSymbol := mload(ptr)\r\n    }\r\n    transferInPackage.bep2TokenSymbol = bep2TokenSymbol;\r\n\r\n    ptr+=20;\r\n    assembly {\r\n      addr := mload(ptr)\r\n    }\r\n    transferInPackage.contractAddr = addr;\r\n\r\n    ptr+=20;\r\n    assembly {\r\n      addr := mload(ptr)\r\n    }\r\n    transferInPackage.refundAddr = addr;\r\n\r\n    ptr+=20;\r\n    assembly {\r\n      recipient := mload(ptr)\r\n    }\r\n    transferInPackage.recipient = recipient;\r\n\r\n    ptr+=32;\r\n    assembly {\r\n      tempValue := mload(ptr)\r\n    }\r\n    transferInPackage.amount = tempValue;\r\n\r\n    ptr+=8;\r\n    uint64 expireTime;\r\n    assembly {\r\n      expireTime := mload(ptr)\r\n    }\r\n    transferInPackage.expireTime = expireTime;\r\n\r\n    ptr+=32;\r\n    assembly {\r\n      tempValue := mload(ptr)\r\n    }\r\n    transferInPackage.relayFee = tempValue;\r\n\r\n    return transferInPackage;\r\n  }\r\n\r\n  function handleTransferInPackage(bytes calldata msgBytes, bytes calldata proof, uint64 height, uint64 packageSequence) onlyHeaderSynced(height) onlyRelayer override external returns (bool) {\r\n    require(packageSequence==_transferInChannelSequence, \"wrong transfer sequence\");\r\n    require(msgBytes.length==164, \"wrong transfer package size\");\r\n    bytes32 appHash = ILightClient(_lightClientContract).getAppHash(height);\r\n    require(MerkleProof.validateMerkleProof(appHash, STORE_NAME, generateKey(transferInChannelID, _transferInChannelSequence), msgBytes, proof), \"invalid merkle proof\");\r\n    _transferInChannelSequence++;\r\n\r\n    address payable tendermintHeaderSubmitter = ILightClient(_lightClientContract).getSubmitter(height);\r\n    TransferInPackage memory transferInPackage = decodeTransferInPackage(msgBytes);\r\n    IRelayerIncentivize(_incentivizeContractForRelayers).addReward{value: transferInPackage.relayFee}(tendermintHeaderSubmitter, msg.sender);\r\n\r\n    if (transferInPackage.contractAddr==address(0x0) && transferInPackage.bep2TokenSymbol==bep2TokenSymbolForBNB) {\r\n      if (block.timestamp > transferInPackage.expireTime) {\r\n        emit LogTransferInFailureTimeout(_transferInFailureChannelSequence++, transferInPackage.refundAddr, transferInPackage.recipient, transferInPackage.amount/10**10, transferInPackage.contractAddr, transferInPackage.bep2TokenSymbol, transferInPackage.expireTime);\r\n        return false;\r\n      }\r\n      if (address(this).balance < transferInPackage.amount) {\r\n        emit LogTransferInFailureInsufficientBalance(_transferInFailureChannelSequence++, transferInPackage.refundAddr, transferInPackage.recipient, transferInPackage.amount/10**10, transferInPackage.contractAddr, transferInPackage.bep2TokenSymbol, address(this).balance);\r\n        return false;\r\n      }\r\n      if (!transferInPackage.recipient.send(transferInPackage.amount)) {\r\n        emit LogTransferInFailureUnknownReason(_transferInFailureChannelSequence++, transferInPackage.refundAddr, transferInPackage.recipient, transferInPackage.amount/10**10, transferInPackage.contractAddr, transferInPackage.bep2TokenSymbol);\r\n        return false;\r\n      }\r\n      emit LogTransferInSuccess(_transferInChannelSequence-1, transferInPackage.recipient, transferInPackage.amount, transferInPackage.contractAddr);\r\n      return true;\r\n    } else {\r\n      uint256 bep2Amount = transferInPackage.amount * (10**8) / (10**_erc20ContractDecimals[transferInPackage.contractAddr]);\r\n      if (_contractAddrToBEP2Symbol[transferInPackage.contractAddr]!= transferInPackage.bep2TokenSymbol) {\r\n        emit LogTransferInFailureUnboundToken(_transferInFailureChannelSequence++, transferInPackage.refundAddr, transferInPackage.recipient, bep2Amount, transferInPackage.contractAddr, transferInPackage.bep2TokenSymbol);\r\n        return false;\r\n      }\r\n      if (block.timestamp > transferInPackage.expireTime) {\r\n        emit LogTransferInFailureTimeout(_transferInFailureChannelSequence++, transferInPackage.refundAddr, transferInPackage.recipient, bep2Amount, transferInPackage.contractAddr, transferInPackage.bep2TokenSymbol, transferInPackage.expireTime);\r\n        return false;\r\n      }\r\n      try IERC20(transferInPackage.contractAddr).transfer{gas: _maxGasForCallingERC20}(transferInPackage.recipient, transferInPackage.amount) returns (bool success) {\r\n        if (success) {\r\n          emit LogTransferInSuccess(_transferInChannelSequence-1, transferInPackage.recipient, transferInPackage.amount, transferInPackage.contractAddr);\r\n          return true;\r\n        } else {\r\n          try IERC20(transferInPackage.contractAddr).balanceOf{gas: _maxGasForCallingERC20}(address(this)) returns (uint256 actualBalance) {\r\n            emit LogTransferInFailureInsufficientBalance(_transferInFailureChannelSequence++, transferInPackage.refundAddr, transferInPackage.recipient, bep2Amount, transferInPackage.contractAddr, transferInPackage.bep2TokenSymbol, actualBalance);\r\n            return false;\r\n          } catch Error(string memory reason) {\r\n            emit LogTransferInFailureUnknownReason(_transferInFailureChannelSequence++, transferInPackage.refundAddr, transferInPackage.recipient, bep2Amount, transferInPackage.contractAddr, transferInPackage.bep2TokenSymbol);\r\n            emit LogUnexpectedRevertInERC20(transferInPackage.contractAddr, reason);\r\n            return false;\r\n          } catch (bytes memory lowLevelData) {\r\n            emit LogTransferInFailureUnknownReason(_transferInFailureChannelSequence++, transferInPackage.refundAddr, transferInPackage.recipient, bep2Amount, transferInPackage.contractAddr, transferInPackage.bep2TokenSymbol);\r\n            emit LogUnexpectedFailureAssertionInERC20(transferInPackage.contractAddr, lowLevelData);\r\n            return false;\r\n          }\r\n        }\r\n      } catch Error(string memory reason) {\r\n        emit LogTransferInFailureUnknownReason(_transferInFailureChannelSequence++, transferInPackage.refundAddr, transferInPackage.recipient, bep2Amount, transferInPackage.contractAddr, transferInPackage.bep2TokenSymbol);\r\n        emit LogUnexpectedRevertInERC20(transferInPackage.contractAddr, reason);\r\n        return false;\r\n      } catch (bytes memory lowLevelData) {\r\n        emit LogTransferInFailureUnknownReason(_transferInFailureChannelSequence++, transferInPackage.refundAddr, transferInPackage.recipient, bep2Amount, transferInPackage.contractAddr, transferInPackage.bep2TokenSymbol);\r\n        emit LogUnexpectedFailureAssertionInERC20(transferInPackage.contractAddr, lowLevelData);\r\n        return false;\r\n      }\r\n    }\r\n  }\r\n\r\n  // | length   | refundAmount | contractAddr | refundAddr | failureReason |\r\n  // | 32 bytes | 32 bytes   | 20 bytes   | 20 bytes   | 2 bytes     |\r\n  function decodeRefundPackage(bytes memory value) internal pure returns(RefundPackage memory) {\r\n    RefundPackage memory refundPackage;\r\n\r\n    uint256 ptr;\r\n    assembly {\r\n      ptr := value\r\n    }\r\n\r\n    ptr+=32;\r\n    uint256 refundAmount;\r\n    assembly {\r\n      refundAmount := mload(ptr)\r\n    }\r\n    refundPackage.refundAmount = refundAmount;\r\n\r\n    ptr+=20;\r\n    address contractAddr;\r\n    assembly {\r\n      contractAddr := mload(ptr)\r\n    }\r\n    refundPackage.contractAddr = contractAddr;\r\n\r\n    ptr+=20;\r\n    address payable refundAddr;\r\n    assembly {\r\n      refundAddr := mload(ptr)\r\n    }\r\n    refundPackage.refundAddr = refundAddr;\r\n\r\n    ptr+=2;\r\n    uint16 reason;\r\n    assembly {\r\n      reason := mload(ptr)\r\n    }\r\n    refundPackage.reason = reason;\r\n\r\n\r\n    return refundPackage;\r\n  }\r\n\r\n  function handleRefundPackage(bytes calldata msgBytes, bytes calldata proof, uint64 height, uint64 packageSequence) onlyHeaderSynced(height) onlyRelayer override external returns (bool) {\r\n    require(packageSequence==_refundChannelSequence, \"wrong refund sequence\");\r\n    require(msgBytes.length==74, \"wrong refund package size\");\r\n    bytes32 appHash = ILightClient(_lightClientContract).getAppHash(height);\r\n    require(MerkleProof.validateMerkleProof(appHash, STORE_NAME, generateKey(refundChannelID, _refundChannelSequence), msgBytes, proof), \"invalid merkle proof\");\r\n    _refundChannelSequence++;\r\n\r\n    address payable tendermintHeaderSubmitter = ILightClient(_lightClientContract).getSubmitter(height);\r\n    //TODO system reward, need further discussion,\r\n    //TODO taking malicious refund cases caused by inconsistent total supply into consideration, so this reward must be less than minimum relay fee\r\n    uint256 reward = _refundRelayReward / 5;\r\n    ISystemReward(_systemRewardContract).claimRewards(tendermintHeaderSubmitter, reward);\r\n    reward = _refundRelayReward-reward;\r\n    ISystemReward(_systemRewardContract).claimRewards(msg.sender, reward);\r\n\r\n    RefundPackage memory refundPackage = decodeRefundPackage(msgBytes);\r\n    if (refundPackage.contractAddr==address(0x0)) {\r\n      uint256 actualBalance = address(this).balance;\r\n      if (actualBalance < refundPackage.refundAmount) {\r\n        emit LogRefundFailureInsufficientBalance(refundPackage.contractAddr, refundPackage.refundAddr, refundPackage.refundAmount, refundPackage.reason, actualBalance);\r\n        return false;\r\n      }\r\n      if (!refundPackage.refundAddr.send(refundPackage.refundAmount)){\r\n        emit LogRefundFailureUnknownReason(refundPackage.contractAddr, refundPackage.refundAddr, refundPackage.refundAmount, refundPackage.reason);\r\n        return false;\r\n      }\r\n      emit LogRefundSuccess(refundPackage.contractAddr, refundPackage.refundAddr, refundPackage.refundAmount, refundPackage.reason);\r\n      return true;\r\n    } else {\r\n      if (_contractAddrToBEP2Symbol[refundPackage.contractAddr]==bytes32(0x00)) {\r\n        emit LogRefundFailureUnboundToken(refundPackage.contractAddr, refundPackage.refundAddr, refundPackage.refundAmount, refundPackage.reason);\r\n        return false;\r\n      }\r\n      try IERC20(refundPackage.contractAddr).transfer{gas: _maxGasForCallingERC20}(refundPackage.refundAddr, refundPackage.refundAmount) returns (bool success) {\r\n        if (success) {\r\n          emit LogRefundSuccess(refundPackage.contractAddr, refundPackage.refundAddr, refundPackage.refundAmount, refundPackage.reason);\r\n          return true;\r\n        } else {\r\n          try IERC20(refundPackage.contractAddr).balanceOf{gas: _maxGasForCallingERC20}(address(this)) returns (uint256 actualBalance) {\r\n            emit LogRefundFailureInsufficientBalance(refundPackage.contractAddr, refundPackage.refundAddr, refundPackage.refundAmount, refundPackage.reason, actualBalance);\r\n            return false;\r\n          } catch Error(string memory reason) {\r\n            emit LogRefundFailureUnknownReason(refundPackage.contractAddr, refundPackage.refundAddr, refundPackage.refundAmount, refundPackage.reason);\r\n            emit LogUnexpectedRevertInERC20(refundPackage.contractAddr, reason);\r\n            return false;\r\n          } catch (bytes memory lowLevelData) {\r\n            emit LogRefundFailureUnknownReason(refundPackage.contractAddr, refundPackage.refundAddr, refundPackage.refundAmount, refundPackage.reason);\r\n            emit LogUnexpectedFailureAssertionInERC20(refundPackage.contractAddr, lowLevelData);\r\n            return false;\r\n          }\r\n        }\r\n      } catch Error(string memory reason) {\r\n        emit LogRefundFailureUnknownReason(refundPackage.contractAddr, refundPackage.refundAddr, refundPackage.refundAmount, refundPackage.reason);\r\n        emit LogUnexpectedRevertInERC20(refundPackage.contractAddr, reason);\r\n        return false;\r\n      } catch (bytes memory lowLevelData) {\r\n        emit LogRefundFailureUnknownReason(refundPackage.contractAddr, refundPackage.refundAddr, refundPackage.refundAmount, refundPackage.reason);\r\n        emit LogUnexpectedFailureAssertionInERC20(refundPackage.contractAddr, lowLevelData);\r\n        return false;\r\n      }\r\n    }\r\n  }\r\n\r\n  function transferOut(address contractAddr, address recipient, uint256 amount, uint256 expireTime, uint256 relayFee) override external payable returns (bool) {\r\n    require(relayFee%(10**10)==0, \"relayFee is must be N*10^10\");\r\n    require(relayFee>=_minimumRelayFee, \"relayFee is too little\");\r\n    require(expireTime>=block.timestamp + 120, \"expireTime must be two minutes later\");\r\n    uint256 convertedRelayFee = relayFee / (10**10); // native bnb decimals is 8 on BBC, while the native bnb decimals on BSC is 18\r\n    bytes32 bep2TokenSymbol;\r\n    uint256 convertedAmount;\r\n    if (contractAddr==address(0x0)) {\r\n      require(msg.value==amount+relayFee, \"received BNB amount doesn't equal to the sum of transfer amount and relayFee\");\r\n      convertedAmount = amount / (10**10); // native bnb decimals is 8 on BBC, while the native bnb decimals on BSC is 18\r\n      bep2TokenSymbol=bep2TokenSymbolForBNB;\r\n    } else {\r\n      uint256 erc20TokenDecimals=_erc20ContractDecimals[contractAddr];\r\n      if (erc20TokenDecimals > 8) {\r\n        uint256 extraPrecision = 10**(erc20TokenDecimals-8);\r\n        require(amount%extraPrecision==0, \"invalid transfer amount: precision loss in amount conversion\");\r\n      }\r\n      bep2TokenSymbol = _contractAddrToBEP2Symbol[contractAddr];\r\n      require(bep2TokenSymbol!=bytes32(0x00), \"the contract has not been bind to any bep2 token\");\r\n      require(msg.value==relayFee, \"received BNB amount doesn't equal to relayFee\");\r\n      require(IERC20(contractAddr).transferFrom(msg.sender, address(this), amount));\r\n      convertedAmount = amount * (10**8)/ (10**erc20TokenDecimals); // bep2 token decimals is 8 on BBC\r\n      require(convertedAmount<=maxBep2TotalSupply, \"amount is too large, int64 overflow\");\r\n    }\r\n    emit LogTransferOut(_transferOutChannelSequence++, msg.sender, recipient, convertedAmount, contractAddr, bep2TokenSymbol, expireTime, convertedRelayFee);\r\n    return true;\r\n  }\r\n\r\n  function batchTransferOut(address[] calldata recipientAddrs, uint256[] calldata amounts, address[] calldata refundAddrs, address contractAddr, uint256 expireTime, uint256 relayFee) override external payable returns (bool) {\r\n    require(recipientAddrs.length == amounts.length, \"Length of recipientAddrs doesn't equal to length of amounts\");\r\n    require(recipientAddrs.length == refundAddrs.length, \"Length of recipientAddrs doesn't equal to length of refundAddrs\");\r\n    require(relayFee/amounts.length>=_minimumRelayFee, \"relayFee is too little\");\r\n    require(relayFee%(10**10)==0, \"relayFee must be N*10^10\");\r\n    require(expireTime>=block.timestamp + 120, \"expireTime must be two minutes later\");\r\n    uint256 totalAmount = 0;\r\n    for (uint i = 0; i < amounts.length; i++) {\r\n      totalAmount += amounts[i];\r\n    }\r\n    uint256[] memory convertedAmounts = new uint256[](amounts.length);\r\n    bytes32 bep2TokenSymbol;\r\n    if (contractAddr==address(0x0)) {\r\n      for (uint8 i = 0; i < amounts.length; i++) {\r\n        require(amounts[i]%10**10==0, \"invalid transfer amount\");\r\n        convertedAmounts[i] = amounts[i]/10**10;\r\n      }\r\n      require(msg.value==totalAmount+relayFee, \"received BNB amount doesn't equal to the sum of transfer amount and relayFee\");\r\n      bep2TokenSymbol=bep2TokenSymbolForBNB;\r\n    } else {\r\n      uint256 erc20TokenDecimals=_erc20ContractDecimals[contractAddr];\r\n      for (uint i = 0; i < amounts.length; i++) {\r\n        require((amounts[i]*(10**8)%(10**erc20TokenDecimals))==0, \"invalid transfer amount\");\r\n        uint256 convertedAmount = amounts[i]*(10**8)/(10**erc20TokenDecimals);\r\n        require(convertedAmount<=maxBep2TotalSupply, \"amount is too large, int64 overflow\");\r\n        convertedAmounts[i] = convertedAmount;\r\n      }\r\n      bep2TokenSymbol = _contractAddrToBEP2Symbol[contractAddr];\r\n      require(bep2TokenSymbol!=bytes32(0x00), \"the contract has not been bind to any bep2 token\");\r\n      require(msg.value==relayFee, \"received BNB amount doesn't equal to relayFee\");\r\n      require(IERC20(contractAddr).transferFrom(msg.sender, address(this), totalAmount));\r\n    }\r\n    emit LogBatchTransferOut(_transferOutChannelSequence, convertedAmounts, contractAddr, bep2TokenSymbol, expireTime, relayFee/(10**10));\r\n    emit LogBatchTransferOutAddrs(_transferOutChannelSequence++, recipientAddrs, refundAddrs);\r\n    return true;\r\n  }\r\n}",
  "sourcePath": "D:\\myfile\\developer\\smart_contract\\pro\\smartContract_slimeTest1\\contracts\\TokenHub.sol",
  "compiler": {
    "name": "solc",
    "version": "0.6.4+commit.1dca32f3.Emscripten.clang"
  },
  "schemaVersion": "3.4.3",
  "updatedAt": "2021-12-23T07:14:23.953Z",
  "devdoc": {
    "methods": {}
  },
  "userdoc": {
    "methods": {}
  }
}